{
  "_format": "hh-sol-artifact-1",
  "contractName": "ChampagneGovernor",
  "sourceName": "contracts/Champagne-Governor.sol",
  "abi": [
    {
      "inputs": [
        {
          "internalType": "contract IVotes",
          "name": "_token",
          "type": "address"
        },
        {
          "internalType": "contract TimelockController",
          "name": "_timelock",
          "type": "address"
        }
      ],
      "stateMutability": "nonpayable",
      "type": "constructor"
    },
    {
      "inputs": [],
      "name": "Empty",
      "type": "error"
    },
    {
      "anonymous": false,
      "inputs": [
        {
          "indexed": false,
          "internalType": "uint256",
          "name": "proposalId",
          "type": "uint256"
        }
      ],
      "name": "ProposalCanceled",
      "type": "event"
    },
    {
      "anonymous": false,
      "inputs": [
        {
          "indexed": false,
          "internalType": "uint256",
          "name": "proposalId",
          "type": "uint256"
        },
        {
          "indexed": false,
          "internalType": "address",
          "name": "proposer",
          "type": "address"
        },
        {
          "indexed": false,
          "internalType": "address[]",
          "name": "targets",
          "type": "address[]"
        },
        {
          "indexed": false,
          "internalType": "uint256[]",
          "name": "values",
          "type": "uint256[]"
        },
        {
          "indexed": false,
          "internalType": "string[]",
          "name": "signatures",
          "type": "string[]"
        },
        {
          "indexed": false,
          "internalType": "bytes[]",
          "name": "calldatas",
          "type": "bytes[]"
        },
        {
          "indexed": false,
          "internalType": "uint256",
          "name": "startBlock",
          "type": "uint256"
        },
        {
          "indexed": false,
          "internalType": "uint256",
          "name": "endBlock",
          "type": "uint256"
        },
        {
          "indexed": false,
          "internalType": "string",
          "name": "description",
          "type": "string"
        }
      ],
      "name": "ProposalCreated",
      "type": "event"
    },
    {
      "anonymous": false,
      "inputs": [
        {
          "indexed": false,
          "internalType": "uint256",
          "name": "proposalId",
          "type": "uint256"
        }
      ],
      "name": "ProposalExecuted",
      "type": "event"
    },
    {
      "anonymous": false,
      "inputs": [
        {
          "indexed": false,
          "internalType": "uint256",
          "name": "proposalId",
          "type": "uint256"
        },
        {
          "indexed": false,
          "internalType": "uint256",
          "name": "eta",
          "type": "uint256"
        }
      ],
      "name": "ProposalQueued",
      "type": "event"
    },
    {
      "anonymous": false,
      "inputs": [
        {
          "indexed": false,
          "internalType": "uint256",
          "name": "oldProposalThreshold",
          "type": "uint256"
        },
        {
          "indexed": false,
          "internalType": "uint256",
          "name": "newProposalThreshold",
          "type": "uint256"
        }
      ],
      "name": "ProposalThresholdSet",
      "type": "event"
    },
    {
      "anonymous": false,
      "inputs": [
        {
          "indexed": false,
          "internalType": "uint256",
          "name": "oldQuorumNumerator",
          "type": "uint256"
        },
        {
          "indexed": false,
          "internalType": "uint256",
          "name": "newQuorumNumerator",
          "type": "uint256"
        }
      ],
      "name": "QuorumNumeratorUpdated",
      "type": "event"
    },
    {
      "anonymous": false,
      "inputs": [
        {
          "indexed": false,
          "internalType": "address",
          "name": "oldTimelock",
          "type": "address"
        },
        {
          "indexed": false,
          "internalType": "address",
          "name": "newTimelock",
          "type": "address"
        }
      ],
      "name": "TimelockChange",
      "type": "event"
    },
    {
      "anonymous": false,
      "inputs": [
        {
          "indexed": true,
          "internalType": "address",
          "name": "voter",
          "type": "address"
        },
        {
          "indexed": false,
          "internalType": "uint256",
          "name": "proposalId",
          "type": "uint256"
        },
        {
          "indexed": false,
          "internalType": "uint8",
          "name": "support",
          "type": "uint8"
        },
        {
          "indexed": false,
          "internalType": "uint256",
          "name": "weight",
          "type": "uint256"
        },
        {
          "indexed": false,
          "internalType": "string",
          "name": "reason",
          "type": "string"
        }
      ],
      "name": "VoteCast",
      "type": "event"
    },
    {
      "anonymous": false,
      "inputs": [
        {
          "indexed": true,
          "internalType": "address",
          "name": "voter",
          "type": "address"
        },
        {
          "indexed": false,
          "internalType": "uint256",
          "name": "proposalId",
          "type": "uint256"
        },
        {
          "indexed": false,
          "internalType": "uint8",
          "name": "support",
          "type": "uint8"
        },
        {
          "indexed": false,
          "internalType": "uint256",
          "name": "weight",
          "type": "uint256"
        },
        {
          "indexed": false,
          "internalType": "string",
          "name": "reason",
          "type": "string"
        },
        {
          "indexed": false,
          "internalType": "bytes",
          "name": "params",
          "type": "bytes"
        }
      ],
      "name": "VoteCastWithParams",
      "type": "event"
    },
    {
      "anonymous": false,
      "inputs": [
        {
          "indexed": false,
          "internalType": "uint256",
          "name": "oldVotingDelay",
          "type": "uint256"
        },
        {
          "indexed": false,
          "internalType": "uint256",
          "name": "newVotingDelay",
          "type": "uint256"
        }
      ],
      "name": "VotingDelaySet",
      "type": "event"
    },
    {
      "anonymous": false,
      "inputs": [
        {
          "indexed": false,
          "internalType": "uint256",
          "name": "oldVotingPeriod",
          "type": "uint256"
        },
        {
          "indexed": false,
          "internalType": "uint256",
          "name": "newVotingPeriod",
          "type": "uint256"
        }
      ],
      "name": "VotingPeriodSet",
      "type": "event"
    },
    {
      "inputs": [],
      "name": "BALLOT_TYPEHASH",
      "outputs": [
        {
          "internalType": "bytes32",
          "name": "",
          "type": "bytes32"
        }
      ],
      "stateMutability": "view",
      "type": "function"
    },
    {
      "inputs": [],
      "name": "COUNTING_MODE",
      "outputs": [
        {
          "internalType": "string",
          "name": "",
          "type": "string"
        }
      ],
      "stateMutability": "pure",
      "type": "function"
    },
    {
      "inputs": [],
      "name": "EXTENDED_BALLOT_TYPEHASH",
      "outputs": [
        {
          "internalType": "bytes32",
          "name": "",
          "type": "bytes32"
        }
      ],
      "stateMutability": "view",
      "type": "function"
    },
    {
      "inputs": [
        {
          "internalType": "uint256",
          "name": "proposalId",
          "type": "uint256"
        },
        {
          "internalType": "uint8",
          "name": "support",
          "type": "uint8"
        }
      ],
      "name": "castVote",
      "outputs": [
        {
          "internalType": "uint256",
          "name": "",
          "type": "uint256"
        }
      ],
      "stateMutability": "nonpayable",
      "type": "function"
    },
    {
      "inputs": [
        {
          "internalType": "uint256",
          "name": "proposalId",
          "type": "uint256"
        },
        {
          "internalType": "uint8",
          "name": "support",
          "type": "uint8"
        },
        {
          "internalType": "uint8",
          "name": "v",
          "type": "uint8"
        },
        {
          "internalType": "bytes32",
          "name": "r",
          "type": "bytes32"
        },
        {
          "internalType": "bytes32",
          "name": "s",
          "type": "bytes32"
        }
      ],
      "name": "castVoteBySig",
      "outputs": [
        {
          "internalType": "uint256",
          "name": "",
          "type": "uint256"
        }
      ],
      "stateMutability": "nonpayable",
      "type": "function"
    },
    {
      "inputs": [
        {
          "internalType": "uint256",
          "name": "proposalId",
          "type": "uint256"
        },
        {
          "internalType": "uint8",
          "name": "support",
          "type": "uint8"
        },
        {
          "internalType": "string",
          "name": "reason",
          "type": "string"
        }
      ],
      "name": "castVoteWithReason",
      "outputs": [
        {
          "internalType": "uint256",
          "name": "",
          "type": "uint256"
        }
      ],
      "stateMutability": "nonpayable",
      "type": "function"
    },
    {
      "inputs": [
        {
          "internalType": "uint256",
          "name": "proposalId",
          "type": "uint256"
        },
        {
          "internalType": "uint8",
          "name": "support",
          "type": "uint8"
        },
        {
          "internalType": "string",
          "name": "reason",
          "type": "string"
        },
        {
          "internalType": "bytes",
          "name": "params",
          "type": "bytes"
        }
      ],
      "name": "castVoteWithReasonAndParams",
      "outputs": [
        {
          "internalType": "uint256",
          "name": "",
          "type": "uint256"
        }
      ],
      "stateMutability": "nonpayable",
      "type": "function"
    },
    {
      "inputs": [
        {
          "internalType": "uint256",
          "name": "proposalId",
          "type": "uint256"
        },
        {
          "internalType": "uint8",
          "name": "support",
          "type": "uint8"
        },
        {
          "internalType": "string",
          "name": "reason",
          "type": "string"
        },
        {
          "internalType": "bytes",
          "name": "params",
          "type": "bytes"
        },
        {
          "internalType": "uint8",
          "name": "v",
          "type": "uint8"
        },
        {
          "internalType": "bytes32",
          "name": "r",
          "type": "bytes32"
        },
        {
          "internalType": "bytes32",
          "name": "s",
          "type": "bytes32"
        }
      ],
      "name": "castVoteWithReasonAndParamsBySig",
      "outputs": [
        {
          "internalType": "uint256",
          "name": "",
          "type": "uint256"
        }
      ],
      "stateMutability": "nonpayable",
      "type": "function"
    },
    {
      "inputs": [
        {
          "internalType": "address[]",
          "name": "targets",
          "type": "address[]"
        },
        {
          "internalType": "uint256[]",
          "name": "values",
          "type": "uint256[]"
        },
        {
          "internalType": "bytes[]",
          "name": "calldatas",
          "type": "bytes[]"
        },
        {
          "internalType": "bytes32",
          "name": "descriptionHash",
          "type": "bytes32"
        }
      ],
      "name": "execute",
      "outputs": [
        {
          "internalType": "uint256",
          "name": "",
          "type": "uint256"
        }
      ],
      "stateMutability": "payable",
      "type": "function"
    },
    {
      "inputs": [
        {
          "internalType": "address",
          "name": "account",
          "type": "address"
        },
        {
          "internalType": "uint256",
          "name": "blockNumber",
          "type": "uint256"
        }
      ],
      "name": "getVotes",
      "outputs": [
        {
          "internalType": "uint256",
          "name": "",
          "type": "uint256"
        }
      ],
      "stateMutability": "view",
      "type": "function"
    },
    {
      "inputs": [
        {
          "internalType": "address",
          "name": "account",
          "type": "address"
        },
        {
          "internalType": "uint256",
          "name": "blockNumber",
          "type": "uint256"
        },
        {
          "internalType": "bytes",
          "name": "params",
          "type": "bytes"
        }
      ],
      "name": "getVotesWithParams",
      "outputs": [
        {
          "internalType": "uint256",
          "name": "",
          "type": "uint256"
        }
      ],
      "stateMutability": "view",
      "type": "function"
    },
    {
      "inputs": [
        {
          "internalType": "uint256",
          "name": "proposalId",
          "type": "uint256"
        },
        {
          "internalType": "address",
          "name": "account",
          "type": "address"
        }
      ],
      "name": "hasVoted",
      "outputs": [
        {
          "internalType": "bool",
          "name": "",
          "type": "bool"
        }
      ],
      "stateMutability": "view",
      "type": "function"
    },
    {
      "inputs": [
        {
          "internalType": "address[]",
          "name": "targets",
          "type": "address[]"
        },
        {
          "internalType": "uint256[]",
          "name": "values",
          "type": "uint256[]"
        },
        {
          "internalType": "bytes[]",
          "name": "calldatas",
          "type": "bytes[]"
        },
        {
          "internalType": "bytes32",
          "name": "descriptionHash",
          "type": "bytes32"
        }
      ],
      "name": "hashProposal",
      "outputs": [
        {
          "internalType": "uint256",
          "name": "",
          "type": "uint256"
        }
      ],
      "stateMutability": "pure",
      "type": "function"
    },
    {
      "inputs": [],
      "name": "name",
      "outputs": [
        {
          "internalType": "string",
          "name": "",
          "type": "string"
        }
      ],
      "stateMutability": "view",
      "type": "function"
    },
    {
      "inputs": [
        {
          "internalType": "address",
          "name": "",
          "type": "address"
        },
        {
          "internalType": "address",
          "name": "",
          "type": "address"
        },
        {
          "internalType": "uint256[]",
          "name": "",
          "type": "uint256[]"
        },
        {
          "internalType": "uint256[]",
          "name": "",
          "type": "uint256[]"
        },
        {
          "internalType": "bytes",
          "name": "",
          "type": "bytes"
        }
      ],
      "name": "onERC1155BatchReceived",
      "outputs": [
        {
          "internalType": "bytes4",
          "name": "",
          "type": "bytes4"
        }
      ],
      "stateMutability": "nonpayable",
      "type": "function"
    },
    {
      "inputs": [
        {
          "internalType": "address",
          "name": "",
          "type": "address"
        },
        {
          "internalType": "address",
          "name": "",
          "type": "address"
        },
        {
          "internalType": "uint256",
          "name": "",
          "type": "uint256"
        },
        {
          "internalType": "uint256",
          "name": "",
          "type": "uint256"
        },
        {
          "internalType": "bytes",
          "name": "",
          "type": "bytes"
        }
      ],
      "name": "onERC1155Received",
      "outputs": [
        {
          "internalType": "bytes4",
          "name": "",
          "type": "bytes4"
        }
      ],
      "stateMutability": "nonpayable",
      "type": "function"
    },
    {
      "inputs": [
        {
          "internalType": "address",
          "name": "",
          "type": "address"
        },
        {
          "internalType": "address",
          "name": "",
          "type": "address"
        },
        {
          "internalType": "uint256",
          "name": "",
          "type": "uint256"
        },
        {
          "internalType": "bytes",
          "name": "",
          "type": "bytes"
        }
      ],
      "name": "onERC721Received",
      "outputs": [
        {
          "internalType": "bytes4",
          "name": "",
          "type": "bytes4"
        }
      ],
      "stateMutability": "nonpayable",
      "type": "function"
    },
    {
      "inputs": [
        {
          "internalType": "uint256",
          "name": "proposalId",
          "type": "uint256"
        }
      ],
      "name": "proposalDeadline",
      "outputs": [
        {
          "internalType": "uint256",
          "name": "",
          "type": "uint256"
        }
      ],
      "stateMutability": "view",
      "type": "function"
    },
    {
      "inputs": [
        {
          "internalType": "uint256",
          "name": "proposalId",
          "type": "uint256"
        }
      ],
      "name": "proposalEta",
      "outputs": [
        {
          "internalType": "uint256",
          "name": "",
          "type": "uint256"
        }
      ],
      "stateMutability": "view",
      "type": "function"
    },
    {
      "inputs": [
        {
          "internalType": "uint256",
          "name": "proposalId",
          "type": "uint256"
        }
      ],
      "name": "proposalSnapshot",
      "outputs": [
        {
          "internalType": "uint256",
          "name": "",
          "type": "uint256"
        }
      ],
      "stateMutability": "view",
      "type": "function"
    },
    {
      "inputs": [],
      "name": "proposalThreshold",
      "outputs": [
        {
          "internalType": "uint256",
          "name": "",
          "type": "uint256"
        }
      ],
      "stateMutability": "view",
      "type": "function"
    },
    {
      "inputs": [
        {
          "internalType": "uint256",
          "name": "proposalId",
          "type": "uint256"
        }
      ],
      "name": "proposalVotes",
      "outputs": [
        {
          "internalType": "uint256",
          "name": "againstVotes",
          "type": "uint256"
        },
        {
          "internalType": "uint256",
          "name": "forVotes",
          "type": "uint256"
        },
        {
          "internalType": "uint256",
          "name": "abstainVotes",
          "type": "uint256"
        }
      ],
      "stateMutability": "view",
      "type": "function"
    },
    {
      "inputs": [
        {
          "internalType": "address[]",
          "name": "targets",
          "type": "address[]"
        },
        {
          "internalType": "uint256[]",
          "name": "values",
          "type": "uint256[]"
        },
        {
          "internalType": "bytes[]",
          "name": "calldatas",
          "type": "bytes[]"
        },
        {
          "internalType": "string",
          "name": "description",
          "type": "string"
        }
      ],
      "name": "propose",
      "outputs": [
        {
          "internalType": "uint256",
          "name": "",
          "type": "uint256"
        }
      ],
      "stateMutability": "nonpayable",
      "type": "function"
    },
    {
      "inputs": [
        {
          "internalType": "address[]",
          "name": "targets",
          "type": "address[]"
        },
        {
          "internalType": "uint256[]",
          "name": "values",
          "type": "uint256[]"
        },
        {
          "internalType": "bytes[]",
          "name": "calldatas",
          "type": "bytes[]"
        },
        {
          "internalType": "bytes32",
          "name": "descriptionHash",
          "type": "bytes32"
        }
      ],
      "name": "queue",
      "outputs": [
        {
          "internalType": "uint256",
          "name": "",
          "type": "uint256"
        }
      ],
      "stateMutability": "nonpayable",
      "type": "function"
    },
    {
      "inputs": [
        {
          "internalType": "uint256",
          "name": "blockNumber",
          "type": "uint256"
        }
      ],
      "name": "quorum",
      "outputs": [
        {
          "internalType": "uint256",
          "name": "",
          "type": "uint256"
        }
      ],
      "stateMutability": "view",
      "type": "function"
    },
    {
      "inputs": [],
      "name": "quorumDenominator",
      "outputs": [
        {
          "internalType": "uint256",
          "name": "",
          "type": "uint256"
        }
      ],
      "stateMutability": "view",
      "type": "function"
    },
    {
      "inputs": [],
      "name": "quorumNumerator",
      "outputs": [
        {
          "internalType": "uint256",
          "name": "",
          "type": "uint256"
        }
      ],
      "stateMutability": "view",
      "type": "function"
    },
    {
      "inputs": [
        {
          "internalType": "address",
          "name": "target",
          "type": "address"
        },
        {
          "internalType": "uint256",
          "name": "value",
          "type": "uint256"
        },
        {
          "internalType": "bytes",
          "name": "data",
          "type": "bytes"
        }
      ],
      "name": "relay",
      "outputs": [],
      "stateMutability": "nonpayable",
      "type": "function"
    },
    {
      "inputs": [
        {
          "internalType": "uint256",
          "name": "newProposalThreshold",
          "type": "uint256"
        }
      ],
      "name": "setProposalThreshold",
      "outputs": [],
      "stateMutability": "nonpayable",
      "type": "function"
    },
    {
      "inputs": [
        {
          "internalType": "uint256",
          "name": "newVotingDelay",
          "type": "uint256"
        }
      ],
      "name": "setVotingDelay",
      "outputs": [],
      "stateMutability": "nonpayable",
      "type": "function"
    },
    {
      "inputs": [
        {
          "internalType": "uint256",
          "name": "newVotingPeriod",
          "type": "uint256"
        }
      ],
      "name": "setVotingPeriod",
      "outputs": [],
      "stateMutability": "nonpayable",
      "type": "function"
    },
    {
      "inputs": [
        {
          "internalType": "uint256",
          "name": "proposalId",
          "type": "uint256"
        }
      ],
      "name": "state",
      "outputs": [
        {
          "internalType": "enum IGovernor.ProposalState",
          "name": "",
          "type": "uint8"
        }
      ],
      "stateMutability": "view",
      "type": "function"
    },
    {
      "inputs": [
        {
          "internalType": "bytes4",
          "name": "interfaceId",
          "type": "bytes4"
        }
      ],
      "name": "supportsInterface",
      "outputs": [
        {
          "internalType": "bool",
          "name": "",
          "type": "bool"
        }
      ],
      "stateMutability": "view",
      "type": "function"
    },
    {
      "inputs": [],
      "name": "timelock",
      "outputs": [
        {
          "internalType": "address",
          "name": "",
          "type": "address"
        }
      ],
      "stateMutability": "view",
      "type": "function"
    },
    {
      "inputs": [],
      "name": "token",
      "outputs": [
        {
          "internalType": "contract IVotes",
          "name": "",
          "type": "address"
        }
      ],
      "stateMutability": "view",
      "type": "function"
    },
    {
      "inputs": [
        {
          "internalType": "uint256",
          "name": "newQuorumNumerator",
          "type": "uint256"
        }
      ],
      "name": "updateQuorumNumerator",
      "outputs": [],
      "stateMutability": "nonpayable",
      "type": "function"
    },
    {
      "inputs": [
        {
          "internalType": "contract TimelockController",
          "name": "newTimelock",
          "type": "address"
        }
      ],
      "name": "updateTimelock",
      "outputs": [],
      "stateMutability": "nonpayable",
      "type": "function"
    },
    {
      "inputs": [],
      "name": "version",
      "outputs": [
        {
          "internalType": "string",
          "name": "",
          "type": "string"
        }
      ],
      "stateMutability": "view",
      "type": "function"
    },
    {
      "inputs": [],
      "name": "votingDelay",
      "outputs": [
        {
          "internalType": "uint256",
          "name": "",
          "type": "uint256"
        }
      ],
      "stateMutability": "view",
      "type": "function"
    },
    {
      "inputs": [],
      "name": "votingPeriod",
      "outputs": [
        {
          "internalType": "uint256",
          "name": "",
          "type": "uint256"
        }
      ],
      "stateMutability": "view",
      "type": "function"
    },
    {
      "stateMutability": "payable",
      "type": "receive"
    }
  ],
  "bytecode": "0x6101606040523480156200001257600080fd5b50604051620042a4380380620042a4833981016040819052620000359162000499565b80603183600161b2fa60016040518060400160405280601181526020017021b430b6b830b3b732a3b7bb32b93737b960791b815250806200007b6200017c60201b60201c565b815160208084019190912082518383012060e08290526101008190524660a0818152604080517f8b73c3c69bb8fe3d512ecc4cf759cc79239f7b179b0ffacaa9a75d522b39400f81880181905281830187905260608201869052608082019490945230818401528151808203909301835260c00190528051940193909320919290916080523060601b60c0526101205250508251620001249250600091506020840190620003f3565b506200013290508362000197565b6200013d82620001d8565b62000148816200027f565b50505060601b6001600160601b031916610140526200016781620002c0565b5062000173816200038a565b5050506200052d565b6040805180820190915260018152603160f81b602082015290565b60045460408051918252602082018390527fc565b045403dc03c2eea82b81a0465edad9e2e7fc4d97e11421c209da93d7a93910160405180910390a1600455565b600081116200023e5760405162461bcd60e51b815260206004820152602760248201527f476f7665726e6f7253657474696e67733a20766f74696e6720706572696f6420604482015266746f6f206c6f7760c81b60648201526084015b60405180910390fd5b60055460408051918252602082018390527f7e3f7f0708a84de9203036abaa450dccc85ad5ff52f78c170f3edb55cf5e8828910160405180910390a1600555565b60065460408051918252602082018390527fccb45da8d5717e6c4544694297c4ba5cf151d455c9bb0ed4fc7a38411bc05461910160405180910390a1600655565b6064811115620003455760405162461bcd60e51b815260206004820152604360248201527f476f7665726e6f72566f74657351756f72756d4672616374696f6e3a2071756f60448201527f72756d4e756d657261746f72206f7665722071756f72756d44656e6f6d696e616064820152623a37b960e91b608482015260a40162000235565b600880549082905560408051828152602081018490527f0553476bf02ef2726e8ce5ced78d63e26e602e4a2257b1f559418e24b4633997910160405180910390a15050565b600954604080516001600160a01b03928316815291831660208301527f08f74ea46ef7894f65eabfb5e6e695de773a000b47c529ab559178069b226401910160405180910390a1600980546001600160a01b0319166001600160a01b0392909216919091179055565b8280546200040190620004d7565b90600052602060002090601f01602090048101928262000425576000855562000470565b82601f106200044057805160ff191683800117855562000470565b8280016001018555821562000470579182015b828111156200047057825182559160200191906001019062000453565b506200047e92915062000482565b5090565b5b808211156200047e576000815560010162000483565b60008060408385031215620004ac578182fd5b8251620004b98162000514565b6020840151909250620004cc8162000514565b809150509250929050565b600181811c90821680620004ec57607f821691505b602082108114156200050e57634e487b7160e01b600052602260045260246000fd5b50919050565b6001600160a01b03811681146200052a57600080fd5b50565b60805160a05160c05160601c60e05161010051610120516101405160601c613d086200059c600039600081816109320152818161218801526123d9015260006125c801526000612617015260006125f20152600061254b015260006125750152600061259f0152613d086000f3fe6080604052600436106102bf5760003560e01c80637d5e81e21161016e578063c59057e4116100cb578063eb9019d41161007f578063f23a6e6111610064578063f23a6e61146108bb578063f8ce560a14610900578063fc0c546a1461092057600080fd5b8063eb9019d41461087b578063ece40cc11461089b57600080fd5b8063dd4e2ba5116100b0578063dd4e2ba5146107e1578063deaaa7cc14610827578063ea0217cf1461085b57600080fd5b8063c59057e41461078f578063d33219b4146107af57600080fd5b8063ab58fb8e11610122578063bc197c8111610107578063bc197c811461070a578063c01f9e371461074f578063c28bc2fa1461076f57600080fd5b8063ab58fb8e146106d5578063b58131b0146106f557600080fd5b80639a802a6d116101535780639a802a6d14610680578063a7713a70146106a0578063a890c910146106b557600080fd5b80637d5e81e21461064c57806397c3d3341461066c57600080fd5b80633932abb11161021c57806354fd4d50116101d05780635f398a14116101b55780635f398a14146105ec57806370b0f6601461060c5780637b3c71d31461062c57600080fd5b806354fd4d501461058657806356781388146105cc57600080fd5b80633e4f49e6116102015780633e4f49e6146104ba57806343859632146104e7578063544ffc9c1461053157600080fd5b80633932abb1146104855780633bccf4fd1461049a57600080fd5b8063150b7a02116102735780632656227d116102585780632656227d1461041e5780632d63f693146104315780632fe3e2611461045157600080fd5b8063150b7a02146103a1578063160cbed7146103fe57600080fd5b806303420181116102a4578063034201811461033f57806306f3f9e61461035f57806306fdde031461037f57600080fd5b806301ffc9a7146102e757806302a251a31461031c57600080fd5b366102e257306102cd610954565b6001600160a01b0316146102e057600080fd5b005b600080fd5b3480156102f357600080fd5b506103076103023660046134fc565b61096d565b60405190151581526020015b60405180910390f35b34801561032857600080fd5b5061033161097e565b604051908152602001610313565b34801561034b57600080fd5b5061033161035a366004613659565b610989565b34801561036b57600080fd5b506102e061037a366004613540565b610a81565b34801561038b57600080fd5b50610394610b45565b6040516103139190613981565b3480156103ad57600080fd5b506103e56103bc3660046131dc565b7f150b7a0200000000000000000000000000000000000000000000000000000000949350505050565b6040516001600160e01b03199091168152602001610313565b34801561040a57600080fd5b50610331610419366004613389565b610bd7565b61033161042c366004613389565b610e88565b34801561043d57600080fd5b5061033161044c366004613540565b610fcb565b34801561045d57600080fd5b506103317fb3b3f3b703cd84ce352197dcff232b1b5d3cfb2025ce47cf04742d0651f1af8881565b34801561049157600080fd5b50610331611004565b3480156104a657600080fd5b506103316104b53660046136fd565b61100f565b3480156104c657600080fd5b506104da6104d5366004613540565b611085565b6040516103139190613959565b3480156104f357600080fd5b50610307610502366004613558565b60008281526007602090815260408083206001600160a01b038516845260030190915290205460ff1692915050565b34801561053d57600080fd5b5061056b61054c366004613540565b6000908152600760205260409020805460018201546002909201549092565b60408051938452602084019290925290820152606001610313565b34801561059257600080fd5b5060408051808201909152600181527f31000000000000000000000000000000000000000000000000000000000000006020820152610394565b3480156105d857600080fd5b506103316105e7366004613587565b611090565b3480156105f857600080fd5b506103316106073660046135f2565b6110b9565b34801561061857600080fd5b506102e0610627366004613540565b611103565b34801561063857600080fd5b506103316106473660046135b2565b6111bf565b34801561065857600080fd5b50610331610667366004613415565b611211565b34801561067857600080fd5b506064610331565b34801561068c57600080fd5b5061033161069b366004613332565b611228565b3480156106ac57600080fd5b50600854610331565b3480156106c157600080fd5b506102e06106d0366004613524565b61123f565b3480156106e157600080fd5b506103316106f0366004613540565b6112fb565b34801561070157600080fd5b506103316113bd565b34801561071657600080fd5b506103e5610725366004613132565b7fbc197c810000000000000000000000000000000000000000000000000000000095945050505050565b34801561075b57600080fd5b5061033161076a366004613540565b6113c8565b34801561077b57600080fd5b506102e061078a3660046132d8565b6113f8565b34801561079b57600080fd5b506103316107aa366004613389565b6114f4565b3480156107bb57600080fd5b506009546001600160a01b03165b6040516001600160a01b039091168152602001610313565b3480156107ed57600080fd5b506040805180820190915260208082527f737570706f72743d627261766f2671756f72756d3d666f722c6162737461696e90820152610394565b34801561083357600080fd5b506103317f150214d74d59b7d1e90c73fc22ef3d991dd0a76b046543d4d80ab92d2a50328f81565b34801561086757600080fd5b506102e0610876366004613540565b61152e565b34801561088757600080fd5b506103316108963660046132ad565b6115ea565b3480156108a757600080fd5b506102e06108b6366004613540565b61160b565b3480156108c757600080fd5b506103e56108d6366004613246565b7ff23a6e610000000000000000000000000000000000000000000000000000000095945050505050565b34801561090c57600080fd5b5061033161091b366004613540565b6116c7565b34801561092c57600080fd5b506107c97f000000000000000000000000000000000000000000000000000000000000000081565b60006109686009546001600160a01b031690565b905090565b6000610978826116d2565b92915050565b600061096860055490565b600080610a2d610a257fb3b3f3b703cd84ce352197dcff232b1b5d3cfb2025ce47cf04742d0651f1af888c8c8c8c6040516109c592919061383c565b60405180910390208b80519060200120604051602001610a0a959493929190948552602085019390935260ff9190911660408401526060830152608082015260a00190565b60405160208183030381529060405280519060200120611710565b868686611779565b9050610a738a828b8b8b8080601f0160208091040260200160405190810160405280939291908181526020018383808284376000920191909152508d9250611797915050565b9a9950505050505050505050565b610a89610954565b6001600160a01b0316336001600160a01b031614610aee5760405162461bcd60e51b815260206004820152601860248201527f476f7665726e6f723a206f6e6c79476f7665726e616e6365000000000000000060448201526064015b60405180910390fd5b30610af7610954565b6001600160a01b031614610b395760008036604051610b1792919061383c565b604051809103902090505b80610b2d6002611922565b14610b3757610b22565b505b610b42816119df565b50565b606060008054610b5490613c12565b80601f0160208091040260200160405190810160405280929190818152602001828054610b8090613c12565b8015610bcd5780601f10610ba257610100808354040283529160200191610bcd565b820191906000526020600020905b815481529060010190602001808311610bb057829003601f168201915b5050505050905090565b600080610be6868686866114f4565b90506004610bf382611085565b6007811115610c1257634e487b7160e01b600052602160045260246000fd5b14610c695760405162461bcd60e51b815260206004820152602160248201527f476f7665726e6f723a2070726f706f73616c206e6f74207375636365737366756044820152601b60fa1b6064820152608401610ae5565b600954604080517ff27a0c9200000000000000000000000000000000000000000000000000000000815290516000926001600160a01b03169163f27a0c92916004808301926020929190829003018186803b158015610cc757600080fd5b505afa158015610cdb573d6000803e3d6000fd5b505050506040513d601f19601f82011682018060405250810190610cff91906134e4565b6009546040517fb1c5f4270000000000000000000000000000000000000000000000000000000081529192506001600160a01b03169063b1c5f42790610d52908a908a908a906000908b906004016138b3565b60206040518083038186803b158015610d6a57600080fd5b505afa158015610d7e573d6000803e3d6000fd5b505050506040513d601f19601f82011682018060405250810190610da291906134e4565b6000838152600a60205260408082209290925560095491517f8f2a0bb00000000000000000000000000000000000000000000000000000000081526001600160a01b0390921691638f2a0bb091610e06918b918b918b91908b908990600401613901565b600060405180830381600087803b158015610e2057600080fd5b505af1158015610e34573d6000803e3d6000fd5b505050507f9a2e42fd6722813d69113e7d0079d3d940171428df7373df9c7f7617cfda2892828242610e669190613b48565b6040805192835260208301919091520160405180910390a15095945050505050565b600080610e97868686866114f4565b90506000610ea482611085565b90506004816007811115610ec857634e487b7160e01b600052602160045260246000fd5b1480610ef357506005816007811115610ef157634e487b7160e01b600052602160045260246000fd5b145b610f495760405162461bcd60e51b815260206004820152602160248201527f476f7665726e6f723a2070726f706f73616c206e6f74207375636365737366756044820152601b60fa1b6064820152608401610ae5565b600082815260016020818152604092839020600201805460ff191690921790915590518381527f712ae1383f79ac853f8d882153778e0260ef8f03b504e2866e0593e04d2b291f910160405180910390a1610fa78288888888611ac1565b610fb48288888888611b7f565b610fc18288888888611b8c565b5095945050505050565b600081815260016020908152604080832081519283019091525467ffffffffffffffff16908190525b67ffffffffffffffff1692915050565b600061096860045490565b604080517f150214d74d59b7d1e90c73fc22ef3d991dd0a76b046543d4d80ab92d2a50328f602082015290810186905260ff85166060820152600090819061105d90610a2590608001610a0a565b905061107a87828860405180602001604052806000815250611bc9565b979650505050505050565b600061097882611bec565b6000803390506110b184828560405180602001604052806000815250611bc9565b949350505050565b60008033905061107a87828888888080601f0160208091040260200160405190810160405280939291908181526020018383808284376000920191909152508a9250611797915050565b61110b610954565b6001600160a01b0316336001600160a01b03161461116b5760405162461bcd60e51b815260206004820152601860248201527f476f7665726e6f723a206f6e6c79476f7665726e616e636500000000000000006044820152606401610ae5565b30611174610954565b6001600160a01b0316146111b6576000803660405161119492919061383c565b604051809103902090505b806111aa6002611922565b146111b45761119f565b505b610b4281611d94565b60008033905061120786828787878080601f016020809104026020016040519081016040528093929190818152602001838380828437600092019190915250611bc992505050565b9695505050505050565b600061121f85858585611dd5565b95945050505050565b6000611235848484612146565b90505b9392505050565b611247610954565b6001600160a01b0316336001600160a01b0316146112a75760405162461bcd60e51b815260206004820152601860248201527f476f7665726e6f723a206f6e6c79476f7665726e616e636500000000000000006044820152606401610ae5565b306112b0610954565b6001600160a01b0316146112f257600080366040516112d092919061383c565b604051809103902090505b806112e66002611922565b146112f0576112db565b505b610b4281612204565b6009546000828152600a60205260408082205490517fd45c44350000000000000000000000000000000000000000000000000000000081526004810191909152909182916001600160a01b039091169063d45c44359060240160206040518083038186803b15801561136c57600080fd5b505afa158015611380573d6000803e3d6000fd5b505050506040513d601f19601f820116820180604052508101906113a491906134e4565b9050806001146113b45780611238565b60009392505050565b600061096860065490565b600081815260016020818152604080842081519283019091529091015467ffffffffffffffff1690819052610ff4565b611400610954565b6001600160a01b0316336001600160a01b0316146114605760405162461bcd60e51b815260206004820152601860248201527f476f7665726e6f723a206f6e6c79476f7665726e616e636500000000000000006044820152606401610ae5565b30611469610954565b6001600160a01b0316146114ab576000803660405161148992919061383c565b604051809103902090505b8061149f6002611922565b146114a957611494565b505b6114ed8483838080601f016020809104026020016040519081016040528093929190818152602001838380828437600092019190915250889250612285915050565b5050505050565b60008484848460405160200161150d9493929190613868565b60408051601f19818403018152919052805160209091012095945050505050565b611536610954565b6001600160a01b0316336001600160a01b0316146115965760405162461bcd60e51b815260206004820152601860248201527f476f7665726e6f723a206f6e6c79476f7665726e616e636500000000000000006044820152606401610ae5565b3061159f610954565b6001600160a01b0316146115e157600080366040516115bf92919061383c565b604051809103902090505b806115d56002611922565b146115df576115ca565b505b610b42816122ab565b6000611238838361160660408051602081019091526000815290565b612146565b611613610954565b6001600160a01b0316336001600160a01b0316146116735760405162461bcd60e51b815260206004820152601860248201527f476f7665726e6f723a206f6e6c79476f7665726e616e636500000000000000006044820152606401610ae5565b3061167c610954565b6001600160a01b0316146116be576000803660405161169c92919061383c565b604051809103902090505b806116b26002611922565b146116bc576116a7565b505b610b4281612362565b6000610978826123a3565b60006001600160e01b031982167f6e665ced00000000000000000000000000000000000000000000000000000000148061097857506109788261246f565b600061097861171d61253e565b836040517f19010000000000000000000000000000000000000000000000000000000000006020820152602281018390526042810182905260009060620160405160208183030381529060405280519060200120905092915050565b600080600061178a87878787612665565b91509150610fc181612752565b60008581526001602081905260408220906117b188611085565b60078111156117d057634e487b7160e01b600052602160045260246000fd5b146118435760405162461bcd60e51b815260206004820152602360248201527f476f7665726e6f723a20766f7465206e6f742063757272656e746c792061637460448201527f69766500000000000000000000000000000000000000000000000000000000006064820152608401610ae5565b6040805160208101909152815467ffffffffffffffff169081905260009061186d90889086612146565b905061187c8888888488612953565b83516118ce57866001600160a01b03167fb8e138887d0aa13bab447e82de9d5c1777041ecd21ca36ba824ff1e6c07ddda4898884896040516118c19493929190613a85565b60405180910390a261107a565b866001600160a01b03167fe2babfbac5889a709b63bb7f598b324e08bc5a4fb9ec647fb3cbc9ec07eb8712898884898960405161190f959493929190613aad565b60405180910390a2979650505050505050565b60006119418254600f81810b810b600160801b909204810b900b131590565b15611978576040517f3db2a12a00000000000000000000000000000000000000000000000000000000815260040160405180910390fd5b508054600f90810b80820b820b600090815260018085016020526040822080549290558454920190920b6fffffffffffffffffffffffffffffffff167fffffffffffffffffffffffffffffffff000000000000000000000000000000009091161790915590565b6064811115611a7c5760405162461bcd60e51b815260206004820152604360248201527f476f7665726e6f72566f74657351756f72756d4672616374696f6e3a2071756f60448201527f72756d4e756d657261746f72206f7665722071756f72756d44656e6f6d696e6160648201527f746f720000000000000000000000000000000000000000000000000000000000608482015260a401610ae5565b600880549082905560408051828152602081018490527f0553476bf02ef2726e8ce5ced78d63e26e602e4a2257b1f559418e24b4633997910160405180910390a15050565b30611aca610954565b6001600160a01b0316146114ed5760005b8451811015611b7757306001600160a01b0316858281518110611b0e57634e487b7160e01b600052603260045260246000fd5b60200260200101516001600160a01b03161415611b6757611b67838281518110611b4857634e487b7160e01b600052603260045260246000fd5b6020026020010151805190602001206002612af090919063ffffffff16565b611b7081613c4d565b9050611adb565b505050505050565b6114ed8585858585612b3f565b30611b95610954565b6001600160a01b0316146114ed57600254600f81810b810b600160801b909204810b900b13156114ed5760006002556114ed565b600061121f85858585611be760408051602081019091526000815290565b611797565b600080611bf883612bcc565b90506004816007811115611c1c57634e487b7160e01b600052602160045260246000fd5b14611c275792915050565b6000838152600a602052604090205480611c42575092915050565b6009546040517f2ab0f529000000000000000000000000000000000000000000000000000000008152600481018390526001600160a01b0390911690632ab0f5299060240160206040518083038186803b158015611c9f57600080fd5b505afa158015611cb3573d6000803e3d6000fd5b505050506040513d601f19601f82011682018060405250810190611cd791906134c4565b15611ce6575060079392505050565b6009546040517f584b153e000000000000000000000000000000000000000000000000000000008152600481018390526001600160a01b039091169063584b153e9060240160206040518083038186803b158015611d4357600080fd5b505afa158015611d57573d6000803e3d6000fd5b505050506040513d601f19601f82011682018060405250810190611d7b91906134c4565b15611d8a575060059392505050565b5060029392505050565b60045460408051918252602082018390527fc565b045403dc03c2eea82b81a0465edad9e2e7fc4d97e11421c209da93d7a93910160405180910390a1600455565b6000611ddf6113bd565b611dee33610896600143613bcb565b1015611e625760405162461bcd60e51b815260206004820152603160248201527f476f7665726e6f723a2070726f706f73657220766f7465732062656c6f77207060448201527f726f706f73616c207468726573686f6c640000000000000000000000000000006064820152608401610ae5565b6000611e7786868686805190602001206114f4565b90508451865114611ed45760405162461bcd60e51b815260206004820152602160248201527f476f7665726e6f723a20696e76616c69642070726f706f73616c206c656e67746044820152600d60fb1b6064820152608401610ae5565b8351865114611f2f5760405162461bcd60e51b815260206004820152602160248201527f476f7665726e6f723a20696e76616c69642070726f706f73616c206c656e67746044820152600d60fb1b6064820152608401610ae5565b6000865111611f805760405162461bcd60e51b815260206004820152601860248201527f476f7665726e6f723a20656d7074792070726f706f73616c00000000000000006044820152606401610ae5565b6000818152600160209081526040918290208251918201909252815467ffffffffffffffff16908190521561201d5760405162461bcd60e51b815260206004820152602160248201527f476f7665726e6f723a2070726f706f73616c20616c726561647920657869737460448201527f73000000000000000000000000000000000000000000000000000000000000006064820152608401610ae5565b600061202f61202a611004565b612cd8565b61203843612cd8565b6120429190613b60565b9050600061205161202a61097e565b61205b9083613b60565b835467ffffffffffffffff191667ffffffffffffffff8416178455905060018301805467ffffffffffffffff191667ffffffffffffffff83161790557f7d84a6263ae0d98d3329bd7b46bb4e8d6f98cd35a7adb45c274c8b7fd5ebd5e084338b8b8d5167ffffffffffffffff8111156120e457634e487b7160e01b600052604160045260246000fd5b60405190808252806020026020018201604052801561211757816020015b60608152602001906001900390816121025790505b508c88888e60405161213199989796959493929190613994565b60405180910390a15091979650505050505050565b6040517f3a46b1a80000000000000000000000000000000000000000000000000000000081526001600160a01b038481166004830152602482018490526000917f000000000000000000000000000000000000000000000000000000000000000090911690633a46b1a89060440160206040518083038186803b1580156121cc57600080fd5b505afa1580156121e0573d6000803e3d6000fd5b505050506040513d601f19601f8201168201806040525081019061123591906134e4565b600954604080516001600160a01b03928316815291831660208301527f08f74ea46ef7894f65eabfb5e6e695de773a000b47c529ab559178069b226401910160405180910390a1600980547fffffffffffffffffffffffff0000000000000000000000000000000000000000166001600160a01b0392909216919091179055565b6060611235848484604051806060016040528060298152602001613caa60299139612d5c565b600081116123215760405162461bcd60e51b815260206004820152602760248201527f476f7665726e6f7253657474696e67733a20766f74696e6720706572696f642060448201527f746f6f206c6f77000000000000000000000000000000000000000000000000006064820152608401610ae5565b60055460408051918252602082018390527f7e3f7f0708a84de9203036abaa450dccc85ad5ff52f78c170f3edb55cf5e8828910160405180910390a1600555565b60065460408051918252602082018390527fccb45da8d5717e6c4544694297c4ba5cf151d455c9bb0ed4fc7a38411bc05461910160405180910390a1600655565b600060646008546040517f8e539e8c000000000000000000000000000000000000000000000000000000008152600481018590527f00000000000000000000000000000000000000000000000000000000000000006001600160a01b031690638e539e8c9060240160206040518083038186803b15801561242357600080fd5b505afa158015612437573d6000803e3d6000fd5b505050506040513d601f19601f8201168201806040525081019061245b91906134e4565b6124659190613bac565b6109789190613b8c565b60006001600160e01b031982167fbf26d8970000000000000000000000000000000000000000000000000000000014806124d257506001600160e01b031982167f79dd796f00000000000000000000000000000000000000000000000000000000145b8061250657506001600160e01b031982167f4e2312e000000000000000000000000000000000000000000000000000000000145b8061097857507f01ffc9a7000000000000000000000000000000000000000000000000000000006001600160e01b0319831614610978565b6000306001600160a01b037f00000000000000000000000000000000000000000000000000000000000000001614801561259757507f000000000000000000000000000000000000000000000000000000000000000046145b156125c157507f000000000000000000000000000000000000000000000000000000000000000090565b50604080517f00000000000000000000000000000000000000000000000000000000000000006020808301919091527f0000000000000000000000000000000000000000000000000000000000000000828401527f000000000000000000000000000000000000000000000000000000000000000060608301524660808301523060a0808401919091528351808403909101815260c0909201909252805191012090565b6000807f7fffffffffffffffffffffffffffffff5d576e7357a4501ddfe92f46681b20a083111561269c5750600090506003612749565b8460ff16601b141580156126b457508460ff16601c14155b156126c55750600090506004612749565b6040805160008082526020820180845289905260ff881692820192909252606081018690526080810185905260019060a0016020604051602081039080840390855afa158015612719573d6000803e3d6000fd5b5050604051601f1901519150506001600160a01b03811661274257600060019250925050612749565b9150600090505b94509492505050565b600081600481111561277457634e487b7160e01b600052602160045260246000fd5b141561277d5750565b600181600481111561279f57634e487b7160e01b600052602160045260246000fd5b14156127ed5760405162461bcd60e51b815260206004820152601860248201527f45434453413a20696e76616c6964207369676e617475726500000000000000006044820152606401610ae5565b600281600481111561280f57634e487b7160e01b600052602160045260246000fd5b141561285d5760405162461bcd60e51b815260206004820152601f60248201527f45434453413a20696e76616c6964207369676e6174757265206c656e677468006044820152606401610ae5565b600381600481111561287f57634e487b7160e01b600052602160045260246000fd5b14156128d85760405162461bcd60e51b815260206004820152602260248201527f45434453413a20696e76616c6964207369676e6174757265202773272076616c604482015261756560f01b6064820152608401610ae5565b60048160048111156128fa57634e487b7160e01b600052602160045260246000fd5b1415610b425760405162461bcd60e51b815260206004820152602260248201527f45434453413a20696e76616c6964207369676e6174757265202776272076616c604482015261756560f01b6064820152608401610ae5565b60008581526007602090815260408083206001600160a01b0388168452600381019092529091205460ff16156129f15760405162461bcd60e51b815260206004820152602760248201527f476f7665726e6f72566f74696e6753696d706c653a20766f746520616c72656160448201527f64792063617374000000000000000000000000000000000000000000000000006064820152608401610ae5565b6001600160a01b03851660009081526003820160205260408120805460ff1916600117905560ff168460ff161415612a425782816000016000828254612a379190613b48565b90915550611b779050565b60ff841660011415612a625782816001016000828254612a379190613b48565b60ff841660021415612a825782816002016000828254612a379190613b48565b60405162461bcd60e51b815260206004820152603560248201527f476f7665726e6f72566f74696e6753696d706c653a20696e76616c696420766160448201527f6c756520666f7220656e756d20566f74655479706500000000000000000000006064820152608401610ae5565b8154600160801b90819004600f90810b80820b820b6000908152600180870160205260409091209490945584549301900b6fffffffffffffffffffffffffffffffff9081169091029116179055565b6009546040517fe38335e50000000000000000000000000000000000000000000000000000000081526001600160a01b039091169063e38335e5903490612b939088908890889060009089906004016138b3565b6000604051808303818588803b158015612bac57600080fd5b505af1158015612bc0573d6000803e3d6000fd5b50505050505050505050565b6000818152600160205260408120600281015460ff1615612bf05750600792915050565b6002810154610100900460ff1615612c0b5750600292915050565b6000612c1684610fcb565b905080612c655760405162461bcd60e51b815260206004820152601d60248201527f476f7665726e6f723a20756e6b6e6f776e2070726f706f73616c2069640000006044820152606401610ae5565b438110612c76575060009392505050565b6000612c81856113c8565b9050438110612c9557506001949350505050565b612c9e85612e99565b8015612cbd575060008581526007602052604090208054600190910154115b15612ccd57506004949350505050565b506003949350505050565b600067ffffffffffffffff821115612d585760405162461bcd60e51b815260206004820152602660248201527f53616665436173743a2076616c756520646f65736e27742066697420696e203660448201527f34206269747300000000000000000000000000000000000000000000000000006064820152608401610ae5565b5090565b606082471015612dd45760405162461bcd60e51b815260206004820152602660248201527f416464726573733a20696e73756666696369656e742062616c616e636520666f60448201527f722063616c6c00000000000000000000000000000000000000000000000000006064820152608401610ae5565b6001600160a01b0385163b612e2b5760405162461bcd60e51b815260206004820152601d60248201527f416464726573733a2063616c6c20746f206e6f6e2d636f6e74726163740000006044820152606401610ae5565b600080866001600160a01b03168587604051612e47919061384c565b60006040518083038185875af1925050503d8060008114612e84576040519150601f19603f3d011682016040523d82523d6000602084013e612e89565b606091505b509150915061107a828286612ed0565b600081815260076020526040812060028101546001820154612ebb9190613b48565b612ec761091b85610fcb565b11159392505050565b60608315612edf575081611238565b825115612eef5782518084602001fd5b8160405162461bcd60e51b8152600401610ae59190613981565b600067ffffffffffffffff831115612f2357612f23613c7e565b612f36601f8401601f1916602001613af3565b9050828152838383011115612f4a57600080fd5b828260208301376000602084830101529392505050565b600082601f830112612f71578081fd5b81356020612f86612f8183613b24565b613af3565b80838252828201915082860187848660051b8901011115612fa5578586fd5b855b85811015612fcc578135612fba81613c94565b84529284019290840190600101612fa7565b5090979650505050505050565b600082601f830112612fe9578081fd5b81356020612ff9612f8183613b24565b80838252828201915082860187848660051b8901011115613018578586fd5b855b85811015612fcc57813567ffffffffffffffff811115613038578788fd5b6130468a87838c01016130fd565b855250928401929084019060010161301a565b600082601f830112613069578081fd5b81356020613079612f8183613b24565b80838252828201915082860187848660051b8901011115613098578586fd5b855b85811015612fcc5781358452928401929084019060010161309a565b60008083601f8401126130c7578182fd5b50813567ffffffffffffffff8111156130de578182fd5b6020830191508360208285010111156130f657600080fd5b9250929050565b600082601f83011261310d578081fd5b61123883833560208501612f09565b803560ff8116811461312d57600080fd5b919050565b600080600080600060a08688031215613149578081fd5b853561315481613c94565b9450602086013561316481613c94565b9350604086013567ffffffffffffffff80821115613180578283fd5b61318c89838a01613059565b945060608801359150808211156131a1578283fd5b6131ad89838a01613059565b935060808801359150808211156131c2578283fd5b506131cf888289016130fd565b9150509295509295909350565b600080600080608085870312156131f1578384fd5b84356131fc81613c94565b9350602085013561320c81613c94565b925060408501359150606085013567ffffffffffffffff81111561322e578182fd5b61323a878288016130fd565b91505092959194509250565b600080600080600060a0868803121561325d578081fd5b853561326881613c94565b9450602086013561327881613c94565b93506040860135925060608601359150608086013567ffffffffffffffff8111156132a1578182fd5b6131cf888289016130fd565b600080604083850312156132bf578182fd5b82356132ca81613c94565b946020939093013593505050565b600080600080606085870312156132ed578182fd5b84356132f881613c94565b935060208501359250604085013567ffffffffffffffff81111561331a578283fd5b613326878288016130b6565b95989497509550505050565b600080600060608486031215613346578081fd5b833561335181613c94565b925060208401359150604084013567ffffffffffffffff811115613373578182fd5b61337f868287016130fd565b9150509250925092565b6000806000806080858703121561339e578182fd5b843567ffffffffffffffff808211156133b5578384fd5b6133c188838901612f61565b955060208701359150808211156133d6578384fd5b6133e288838901613059565b945060408701359150808211156133f7578384fd5b5061340487828801612fd9565b949793965093946060013593505050565b6000806000806080858703121561342a578182fd5b843567ffffffffffffffff80821115613441578384fd5b61344d88838901612f61565b95506020870135915080821115613462578384fd5b61346e88838901613059565b94506040870135915080821115613483578384fd5b61348f88838901612fd9565b935060608701359150808211156134a4578283fd5b508501601f810187136134b5578182fd5b61323a87823560208401612f09565b6000602082840312156134d5578081fd5b81518015158114611238578182fd5b6000602082840312156134f5578081fd5b5051919050565b60006020828403121561350d578081fd5b81356001600160e01b031981168114611238578182fd5b600060208284031215613535578081fd5b813561123881613c94565b600060208284031215613551578081fd5b5035919050565b6000806040838503121561356a578182fd5b82359150602083013561357c81613c94565b809150509250929050565b60008060408385031215613599578182fd5b823591506135a96020840161311c565b90509250929050565b600080600080606085870312156135c7578182fd5b843593506135d76020860161311c565b9250604085013567ffffffffffffffff81111561331a578283fd5b600080600080600060808688031215613609578283fd5b853594506136196020870161311c565b9350604086013567ffffffffffffffff80821115613635578485fd5b61364189838a016130b6565b909550935060608801359150808211156131c2578283fd5b60008060008060008060008060e0898b031215613674578586fd5b8835975061368460208a0161311c565b9650604089013567ffffffffffffffff808211156136a0578788fd5b6136ac8c838d016130b6565b909850965060608b01359150808211156136c4578485fd5b506136d18b828c016130fd565b9450506136e060808a0161311c565b925060a0890135915060c089013590509295985092959890939650565b600080600080600060a08688031215613714578283fd5b853594506137246020870161311c565b93506137326040870161311c565b94979396509394606081013594506080013592915050565b6000815180845260208085019450808401835b838110156137825781516001600160a01b03168752958201959082019060010161375d565b509495945050505050565b600081518084526020808501808196508360051b81019150828601855b858110156137d45782840389526137c2848351613810565b988501989350908401906001016137aa565b5091979650505050505050565b6000815180845260208085019450808401835b83811015613782578151875295820195908201906001016137f4565b60008151808452613828816020860160208601613be2565b601f01601f19169290920160200192915050565b8183823760009101908152919050565b6000825161385e818460208701613be2565b9190910192915050565b60808152600061387b608083018761374a565b828103602084015261388d81876137e1565b905082810360408401526138a1818661378d565b91505082606083015295945050505050565b60a0815260006138c660a083018861374a565b82810360208401526138d881886137e1565b905082810360408401526138ec818761378d565b60608401959095525050608001529392505050565b60c08152600061391460c083018961374a565b828103602084015261392681896137e1565b9050828103604084015261393a818861378d565b60608401969096525050608081019290925260a0909101529392505050565b602081016008831061397b57634e487b7160e01b600052602160045260246000fd5b91905290565b6020815260006112386020830184613810565b60006101208b835260206001600160a01b038c16818501528160408501526139be8285018c61374a565b915083820360608501526139d2828b6137e1565b915083820360808501528189518084528284019150828160051b850101838c01865b83811015613a2257601f19878403018552613a10838351613810565b948601949250908501906001016139f4565b505086810360a0880152613a36818c61378d565b945050505050613a5260c084018767ffffffffffffffff169052565b67ffffffffffffffff851660e0840152828103610100840152613a758185613810565b9c9b505050505050505050505050565b84815260ff841660208201528260408201526080606082015260006112076080830184613810565b85815260ff8516602082015283604082015260a060608201526000613ad560a0830185613810565b8281036080840152613ae78185613810565b98975050505050505050565b604051601f8201601f1916810167ffffffffffffffff81118282101715613b1c57613b1c613c7e565b604052919050565b600067ffffffffffffffff821115613b3e57613b3e613c7e565b5060051b60200190565b60008219821115613b5b57613b5b613c68565b500190565b600067ffffffffffffffff808316818516808303821115613b8357613b83613c68565b01949350505050565b600082613ba757634e487b7160e01b81526012600452602481fd5b500490565b6000816000190483118215151615613bc657613bc6613c68565b500290565b600082821015613bdd57613bdd613c68565b500390565b60005b83811015613bfd578181015183820152602001613be5565b83811115613c0c576000848401525b50505050565b600181811c90821680613c2657607f821691505b60208210811415613c4757634e487b7160e01b600052602260045260246000fd5b50919050565b6000600019821415613c6157613c61613c68565b5060010190565b634e487b7160e01b600052601160045260246000fd5b634e487b7160e01b600052604160045260246000fd5b6001600160a01b0381168114610b4257600080fdfe416464726573733a206c6f772d6c6576656c2063616c6c20776974682076616c7565206661696c6564a2646970667358221220cdb4ad796d3a664277d6db3f17c397f9a2c1b63b8df3e032b025371a4f9f636e64736f6c63430008040033",
  "linkReferences": {},
  "deployedLinkReferences": {}
}