{
  "_format": "hh-sol-artifact-1",
  "contractName": "ChampagneCollective",
  "sourceName": "contracts/Champagne.sol",
  "abi": [
    {
      "inputs": [],
      "stateMutability": "nonpayable",
      "type": "constructor"
    },
    {
      "anonymous": false,
      "inputs": [
        {
          "indexed": true,
          "internalType": "address",
          "name": "owner",
          "type": "address"
        },
        {
          "indexed": true,
          "internalType": "address",
          "name": "approved",
          "type": "address"
        },
        {
          "indexed": true,
          "internalType": "uint256",
          "name": "tokenId",
          "type": "uint256"
        }
      ],
      "name": "Approval",
      "type": "event"
    },
    {
      "anonymous": false,
      "inputs": [
        {
          "indexed": true,
          "internalType": "address",
          "name": "owner",
          "type": "address"
        },
        {
          "indexed": true,
          "internalType": "address",
          "name": "operator",
          "type": "address"
        },
        {
          "indexed": false,
          "internalType": "bool",
          "name": "approved",
          "type": "bool"
        }
      ],
      "name": "ApprovalForAll",
      "type": "event"
    },
    {
      "anonymous": false,
      "inputs": [
        {
          "indexed": true,
          "internalType": "address",
          "name": "delegator",
          "type": "address"
        },
        {
          "indexed": true,
          "internalType": "address",
          "name": "fromDelegate",
          "type": "address"
        },
        {
          "indexed": true,
          "internalType": "address",
          "name": "toDelegate",
          "type": "address"
        }
      ],
      "name": "DelegateChanged",
      "type": "event"
    },
    {
      "anonymous": false,
      "inputs": [
        {
          "indexed": true,
          "internalType": "address",
          "name": "delegate",
          "type": "address"
        },
        {
          "indexed": false,
          "internalType": "uint256",
          "name": "previousBalance",
          "type": "uint256"
        },
        {
          "indexed": false,
          "internalType": "uint256",
          "name": "newBalance",
          "type": "uint256"
        }
      ],
      "name": "DelegateVotesChanged",
      "type": "event"
    },
    {
      "anonymous": false,
      "inputs": [
        {
          "indexed": true,
          "internalType": "address",
          "name": "previousOwner",
          "type": "address"
        },
        {
          "indexed": true,
          "internalType": "address",
          "name": "newOwner",
          "type": "address"
        }
      ],
      "name": "OwnershipTransferred",
      "type": "event"
    },
    {
      "anonymous": false,
      "inputs": [
        {
          "indexed": true,
          "internalType": "address",
          "name": "from",
          "type": "address"
        },
        {
          "indexed": true,
          "internalType": "address",
          "name": "to",
          "type": "address"
        },
        {
          "indexed": true,
          "internalType": "uint256",
          "name": "tokenId",
          "type": "uint256"
        }
      ],
      "name": "Transfer",
      "type": "event"
    },
    {
      "inputs": [],
      "name": "DOMAIN_SEPARATOR",
      "outputs": [
        {
          "internalType": "bytes32",
          "name": "",
          "type": "bytes32"
        }
      ],
      "stateMutability": "view",
      "type": "function"
    },
    {
      "inputs": [
        {
          "internalType": "address",
          "name": "to",
          "type": "address"
        },
        {
          "internalType": "uint256",
          "name": "tokenId",
          "type": "uint256"
        }
      ],
      "name": "approve",
      "outputs": [],
      "stateMutability": "nonpayable",
      "type": "function"
    },
    {
      "inputs": [
        {
          "internalType": "address",
          "name": "owner",
          "type": "address"
        }
      ],
      "name": "balanceOf",
      "outputs": [
        {
          "internalType": "uint256",
          "name": "",
          "type": "uint256"
        }
      ],
      "stateMutability": "view",
      "type": "function"
    },
    {
      "inputs": [
        {
          "internalType": "address",
          "name": "delegatee",
          "type": "address"
        }
      ],
      "name": "delegate",
      "outputs": [],
      "stateMutability": "nonpayable",
      "type": "function"
    },
    {
      "inputs": [
        {
          "internalType": "address",
          "name": "delegatee",
          "type": "address"
        },
        {
          "internalType": "uint256",
          "name": "nonce",
          "type": "uint256"
        },
        {
          "internalType": "uint256",
          "name": "expiry",
          "type": "uint256"
        },
        {
          "internalType": "uint8",
          "name": "v",
          "type": "uint8"
        },
        {
          "internalType": "bytes32",
          "name": "r",
          "type": "bytes32"
        },
        {
          "internalType": "bytes32",
          "name": "s",
          "type": "bytes32"
        }
      ],
      "name": "delegateBySig",
      "outputs": [],
      "stateMutability": "nonpayable",
      "type": "function"
    },
    {
      "inputs": [
        {
          "internalType": "address",
          "name": "account",
          "type": "address"
        }
      ],
      "name": "delegates",
      "outputs": [
        {
          "internalType": "address",
          "name": "",
          "type": "address"
        }
      ],
      "stateMutability": "view",
      "type": "function"
    },
    {
      "inputs": [
        {
          "internalType": "uint256",
          "name": "tokenId",
          "type": "uint256"
        }
      ],
      "name": "getApproved",
      "outputs": [
        {
          "internalType": "address",
          "name": "",
          "type": "address"
        }
      ],
      "stateMutability": "view",
      "type": "function"
    },
    {
      "inputs": [
        {
          "internalType": "uint256",
          "name": "blockNumber",
          "type": "uint256"
        }
      ],
      "name": "getPastTotalSupply",
      "outputs": [
        {
          "internalType": "uint256",
          "name": "",
          "type": "uint256"
        }
      ],
      "stateMutability": "view",
      "type": "function"
    },
    {
      "inputs": [
        {
          "internalType": "address",
          "name": "account",
          "type": "address"
        },
        {
          "internalType": "uint256",
          "name": "blockNumber",
          "type": "uint256"
        }
      ],
      "name": "getPastVotes",
      "outputs": [
        {
          "internalType": "uint256",
          "name": "",
          "type": "uint256"
        }
      ],
      "stateMutability": "view",
      "type": "function"
    },
    {
      "inputs": [
        {
          "internalType": "address",
          "name": "account",
          "type": "address"
        }
      ],
      "name": "getVotes",
      "outputs": [
        {
          "internalType": "uint256",
          "name": "",
          "type": "uint256"
        }
      ],
      "stateMutability": "view",
      "type": "function"
    },
    {
      "inputs": [
        {
          "internalType": "address",
          "name": "owner",
          "type": "address"
        },
        {
          "internalType": "address",
          "name": "operator",
          "type": "address"
        }
      ],
      "name": "isApprovedForAll",
      "outputs": [
        {
          "internalType": "bool",
          "name": "",
          "type": "bool"
        }
      ],
      "stateMutability": "view",
      "type": "function"
    },
    {
      "inputs": [],
      "name": "name",
      "outputs": [
        {
          "internalType": "string",
          "name": "",
          "type": "string"
        }
      ],
      "stateMutability": "view",
      "type": "function"
    },
    {
      "inputs": [
        {
          "internalType": "address",
          "name": "owner",
          "type": "address"
        }
      ],
      "name": "nonces",
      "outputs": [
        {
          "internalType": "uint256",
          "name": "",
          "type": "uint256"
        }
      ],
      "stateMutability": "view",
      "type": "function"
    },
    {
      "inputs": [],
      "name": "owner",
      "outputs": [
        {
          "internalType": "address",
          "name": "",
          "type": "address"
        }
      ],
      "stateMutability": "view",
      "type": "function"
    },
    {
      "inputs": [
        {
          "internalType": "uint256",
          "name": "tokenId",
          "type": "uint256"
        }
      ],
      "name": "ownerOf",
      "outputs": [
        {
          "internalType": "address",
          "name": "",
          "type": "address"
        }
      ],
      "stateMutability": "view",
      "type": "function"
    },
    {
      "inputs": [],
      "name": "renounceOwnership",
      "outputs": [],
      "stateMutability": "nonpayable",
      "type": "function"
    },
    {
      "inputs": [
        {
          "internalType": "address",
          "name": "to",
          "type": "address"
        }
      ],
      "name": "safeMint",
      "outputs": [],
      "stateMutability": "nonpayable",
      "type": "function"
    },
    {
      "inputs": [
        {
          "internalType": "address",
          "name": "from",
          "type": "address"
        },
        {
          "internalType": "address",
          "name": "to",
          "type": "address"
        },
        {
          "internalType": "uint256",
          "name": "tokenId",
          "type": "uint256"
        }
      ],
      "name": "safeTransferFrom",
      "outputs": [],
      "stateMutability": "nonpayable",
      "type": "function"
    },
    {
      "inputs": [
        {
          "internalType": "address",
          "name": "from",
          "type": "address"
        },
        {
          "internalType": "address",
          "name": "to",
          "type": "address"
        },
        {
          "internalType": "uint256",
          "name": "tokenId",
          "type": "uint256"
        },
        {
          "internalType": "bytes",
          "name": "_data",
          "type": "bytes"
        }
      ],
      "name": "safeTransferFrom",
      "outputs": [],
      "stateMutability": "nonpayable",
      "type": "function"
    },
    {
      "inputs": [
        {
          "internalType": "address",
          "name": "operator",
          "type": "address"
        },
        {
          "internalType": "bool",
          "name": "approved",
          "type": "bool"
        }
      ],
      "name": "setApprovalForAll",
      "outputs": [],
      "stateMutability": "nonpayable",
      "type": "function"
    },
    {
      "inputs": [
        {
          "internalType": "bytes4",
          "name": "interfaceId",
          "type": "bytes4"
        }
      ],
      "name": "supportsInterface",
      "outputs": [
        {
          "internalType": "bool",
          "name": "",
          "type": "bool"
        }
      ],
      "stateMutability": "view",
      "type": "function"
    },
    {
      "inputs": [],
      "name": "symbol",
      "outputs": [
        {
          "internalType": "string",
          "name": "",
          "type": "string"
        }
      ],
      "stateMutability": "view",
      "type": "function"
    },
    {
      "inputs": [
        {
          "internalType": "uint256",
          "name": "tokenId",
          "type": "uint256"
        }
      ],
      "name": "tokenURI",
      "outputs": [
        {
          "internalType": "string",
          "name": "",
          "type": "string"
        }
      ],
      "stateMutability": "view",
      "type": "function"
    },
    {
      "inputs": [
        {
          "internalType": "address",
          "name": "from",
          "type": "address"
        },
        {
          "internalType": "address",
          "name": "to",
          "type": "address"
        },
        {
          "internalType": "uint256",
          "name": "tokenId",
          "type": "uint256"
        }
      ],
      "name": "transferFrom",
      "outputs": [],
      "stateMutability": "nonpayable",
      "type": "function"
    },
    {
      "inputs": [
        {
          "internalType": "address",
          "name": "newOwner",
          "type": "address"
        }
      ],
      "name": "transferOwnership",
      "outputs": [],
      "stateMutability": "nonpayable",
      "type": "function"
    }
  ],
  "bytecode": "0x6101406040523480156200001257600080fd5b506040518060400160405280601481526020017f4368616d7061676e6520436f6c6c656374697665000000000000000000000000815250604051806040016040528060018152602001603160f81b8152506040518060400160405280601481526020017f4368616d7061676e6520436f6c6c6563746976650000000000000000000000008152506040518060400160405280600581526020016404348414d560dc1b8152508160009080519060200190620000cf92919062000c16565b508051620000e590600190602084019062000c16565b50505062000102620000fc620001c060201b60201c565b620001c4565b815160208084019190912082518383012060e08290526101008190524660a0818152604080517f8b73c3c69bb8fe3d512ecc4cf759cc79239f7b179b0ffacaa9a75d522b39400f81880181905281830187905260608201869052608082019490945230818401528151808203909301835260c00190528051940193909320919290916080523060601b60c0526101205250620001b09250600b91505062000216602090811b62000e1217901c565b620001ba6200021f565b62000ddd565b3390565b600680546001600160a01b038381166001600160a01b0319831681179093556040519116919082907f8be0079c531659141344cd1fd0a4f28419497f9722a3daafe3b4186f6b6457e090600090a35050565b80546001019055565b6006546001600160a01b031633146200026e5760405162461bcd60e51b815260206004820181905260248201526000805160206200361083398151915260448201526064015b60405180910390fd5b6200027933620002de565b6200028433620002de565b6200028f33620002de565b6200029a33620002de565b620002a533620002de565b620002b033620002de565b620002bb33620002de565b620002c633620002de565b620002d133620002de565b620002dc33620002de565b565b6006546001600160a01b03163314620003295760405162461bcd60e51b8152602060048201819052602482015260008051602062003610833981519152604482015260640162000265565b600062000342600b6200036b60201b62000e1b1760201c565b90506200035b600b6200021660201b62000e121760201c565b6200036782826200036f565b5050565b5490565b620003678282604051806020016040528060008152506200039160201b60201c565b6200039d838362000409565b620003ac60008484846200055b565b620004045760405162461bcd60e51b81526020600482015260326024820152600080516020620035f083398151915260448201527131b2b4bb32b91034b6b83632b6b2b73a32b960711b606482015260840162000265565b505050565b6001600160a01b038216620004615760405162461bcd60e51b815260206004820181905260248201527f4552433732313a206d696e7420746f20746865207a65726f2061646472657373604482015260640162000265565b6000818152600260205260409020546001600160a01b031615620004c85760405162461bcd60e51b815260206004820152601c60248201527f4552433732313a20746f6b656e20616c7265616479206d696e74656400000000604482015260640162000265565b6001600160a01b0382166000908152600360205260408120805460019290620004f390849062000d55565b909155505060008181526002602052604080822080546001600160a01b0319166001600160a01b03861690811790915590518392907fddf252ad1be2c89b69c2b068fc378daa952ba7f163c4a11628f55a4df523b3ef908290a46200036760008383620006c4565b60006200057c846001600160a01b0316620006dc60201b62000e1f1760201c565b15620006b857604051630a85bd0160e11b81526001600160a01b0385169063150b7a0290620005b690339089908890889060040162000cdc565b602060405180830381600087803b158015620005d157600080fd5b505af192505050801562000604575060408051601f3d908101601f19168201909252620006019181019062000cb2565b60015b6200069d573d80801562000635576040519150601f19603f3d011682016040523d82523d6000602084013e6200063a565b606091505b508051620006955760405162461bcd60e51b81526020600482015260326024820152600080516020620035f083398151915260448201527131b2b4bb32b91034b6b83632b6b2b73a32b960711b606482015260840162000265565b805181602001fd5b6001600160e01b031916630a85bd0160e11b149050620006bc565b5060015b949350505050565b62000404838383620006eb60201b62000e2e1760201c565b6001600160a01b03163b151590565b620006f98383600162000711565b620004048383836200040460201b620006d71760201c565b6001600160a01b0383166200074b5762000748620007b960201b62000e3a17826009620007ce60201b62000e46179092919060201c565b50505b6001600160a01b038216620007855762000782620007fe60201b62000e7417826009620007ce60201b62000e46179092919060201c565b50505b6001600160a01b0383811660009081526007602052604080822054858416835291205462000404929182169116836200080c565b6000620007c7828462000d55565b9392505050565b600080620007f285620007ec620007e5826200095d565b868860201c565b620009cc565b91509150935093915050565b6000620007c7828462000d70565b816001600160a01b0316836001600160a01b0316141580156200082f5750600081115b1562000404576001600160a01b03831615620008c7576001600160a01b03831660009081526008602090815260408220829162000884919062000e74620007fe821b1790869062000e46620007ce821b17901c565b91509150846001600160a01b0316600080516020620036308339815191528383604051620008bc929190918252602082015260400190565b60405180910390a250505b6001600160a01b0382161562000404576001600160a01b03821660009081526008602090815260408220829162000916919062000e3a620007b9821b1790869062000e46620007ce821b17901c565b91509150836001600160a01b03166000805160206200363083398151915283836040516200094e929190918252602082015260400190565b60405180910390a25050505050565b80546000908015620009b957826200097760018362000d70565b815481106200099657634e487b7160e01b600052603260045260246000fd5b60009182526020909120015464010000000090046001600160e01b0316620009bc565b60005b6001600160e01b03169392505050565b8154600090819081620009df866200095d565b905060008211801562000a2f57504386620009fc60018562000d70565b8154811062000a1b57634e487b7160e01b600052603260045260246000fd5b60009182526020909120015463ffffffff16145b1562000aaf5762000a4b8562000b4060201b62000e801760201c565b8662000a5960018562000d70565b8154811062000a7857634e487b7160e01b600052603260045260246000fd5b9060005260206000200160000160046101000a8154816001600160e01b0302191690836001600160e01b0316021790555062000b37565b85600001604051806040016040528062000ad44362000baf60201b62000f031760201c565b63ffffffff16815260200162000af58862000b4060201b62000e801760201c565b6001600160e01b0390811690915282546001810184556000938452602093849020835194909301519091166401000000000263ffffffff909316929092179101555b95939450505050565b60006001600160e01b0382111562000bab5760405162461bcd60e51b815260206004820152602760248201527f53616665436173743a2076616c756520646f65736e27742066697420696e20326044820152663234206269747360c81b606482015260840162000265565b5090565b600063ffffffff82111562000bab5760405162461bcd60e51b815260206004820152602660248201527f53616665436173743a2076616c756520646f65736e27742066697420696e203360448201526532206269747360d01b606482015260840162000265565b82805462000c249062000d8a565b90600052602060002090601f01602090048101928262000c48576000855562000c93565b82601f1062000c6357805160ff191683800117855562000c93565b8280016001018555821562000c93579182015b8281111562000c9357825182559160200191906001019062000c76565b5062000bab9291505b8082111562000bab576000815560010162000c9c565b60006020828403121562000cc4578081fd5b81516001600160e01b031981168114620007c7578182fd5b600060018060a01b0380871683526020818716818501528560408501526080606085015284519150816080850152825b8281101562000d2a5785810182015185820160a00152810162000d0c565b8281111562000d3c578360a084870101525b5050601f01601f19169190910160a00195945050505050565b6000821982111562000d6b5762000d6b62000dc7565b500190565b60008282101562000d855762000d8562000dc7565b500390565b600181811c9082168062000d9f57607f821691505b6020821081141562000dc157634e487b7160e01b600052602260045260246000fd5b50919050565b634e487b7160e01b600052601160045260246000fd5b60805160a05160c05160601c60e05161010051610120516127c062000e306000396000611341015260006113900152600061136b015260006112c4015260006112ee0152600061131801526127c06000f3fe608060405234801561001057600080fd5b50600436106101a35760003560e01c806370a08231116100ee5780639ab24eb011610097578063c3cda52011610071578063c3cda5201461036c578063c87b56dd1461037f578063e985e9c514610392578063f2fde38b146103ce57600080fd5b80639ab24eb014610333578063a22cb46514610346578063b88d4fde1461035957600080fd5b80638da5cb5b116100c85780638da5cb5b146103075780638e539e8c1461031857806395d89b411461032b57600080fd5b806370a08231146102d9578063715018a6146102ec5780637ecebe00146102f457600080fd5b80633a46b1a811610150578063587cde1e1161012a578063587cde1e146102875780635c19a95c146102b35780636352211e146102c657600080fd5b80633a46b1a81461024e57806340d097c31461026157806342842e0e1461027457600080fd5b8063095ea7b311610181578063095ea7b31461021057806323b872dd146102255780633644e5151461023857600080fd5b806301ffc9a7146101a857806306fdde03146101d0578063081812fc146101e5575b600080fd5b6101bb6101b6366004612529565b6103e1565b60405190151581526020015b60405180910390f35b6101d861047e565b6040516101c79190612610565b6101f86101f3366004612561565b610510565b6040516001600160a01b0390911681526020016101c7565b61022361021e3660046124a2565b6105aa565b005b610223610233366004612358565b6106dc565b610240610763565b6040519081526020016101c7565b61024061025c3660046124a2565b610772565b61022361026f36600461230c565b61079b565b610223610282366004612358565b61081e565b6101f861029536600461230c565b6001600160a01b039081166000908152600760205260409020541690565b6102236102c136600461230c565b610839565b6101f86102d4366004612561565b610844565b6102406102e736600461230c565b6108cf565b610223610969565b61024061030236600461230c565b6109cf565b6006546001600160a01b03166101f8565b610240610326366004612561565b6109ed565b6101d8610a49565b61024061034136600461230c565b610a58565b610223610354366004612468565b610a79565b610223610367366004612393565b610a84565b61022361037a3660046124cb565b610b12565b6101d861038d366004612561565b610c48565b6101bb6103a0366004612326565b6001600160a01b03918216600090815260056020908152604080832093909416825291909152205460ff1690565b6102236103dc36600461230c565b610d30565b60006001600160e01b031982167f80ac58cd00000000000000000000000000000000000000000000000000000000148061044457506001600160e01b031982167f5b5e139f00000000000000000000000000000000000000000000000000000000145b8061047857507f01ffc9a7000000000000000000000000000000000000000000000000000000006001600160e01b03198316145b92915050565b60606000805461048d90612692565b80601f01602080910402602001604051908101604052809291908181526020018280546104b990612692565b80156105065780601f106104db57610100808354040283529160200191610506565b820191906000526020600020905b8154815290600101906020018083116104e957829003601f168201915b5050505050905090565b6000818152600260205260408120546001600160a01b031661058e5760405162461bcd60e51b815260206004820152602c60248201527f4552433732313a20617070726f76656420717565727920666f72206e6f6e657860448201526b34b9ba32b73a103a37b5b2b760a11b60648201526084015b60405180910390fd5b506000908152600460205260409020546001600160a01b031690565b60006105b582610844565b9050806001600160a01b0316836001600160a01b0316141561063f5760405162461bcd60e51b815260206004820152602160248201527f4552433732313a20617070726f76616c20746f2063757272656e74206f776e6560448201527f72000000000000000000000000000000000000000000000000000000000000006064820152608401610585565b336001600160a01b038216148061065b575061065b81336103a0565b6106cd5760405162461bcd60e51b815260206004820152603860248201527f4552433732313a20617070726f76652063616c6c6572206973206e6f74206f7760448201527f6e6572206e6f7220617070726f76656420666f7220616c6c00000000000000006064820152608401610585565b6106d78383610f7f565b505050565b6106e63382610fed565b6107585760405162461bcd60e51b815260206004820152603160248201527f4552433732313a207472616e736665722063616c6c6572206973206e6f74206f60448201527f776e6572206e6f7220617070726f7665640000000000000000000000000000006064820152608401610585565b6106d78383836110e4565b600061076d6112b7565b905090565b6001600160a01b038216600090815260086020526040812061079490836113de565b9392505050565b6006546001600160a01b031633146107f55760405162461bcd60e51b815260206004820181905260248201527f4f776e61626c653a2063616c6c6572206973206e6f7420746865206f776e65726044820152606401610585565b6000610800600b5490565b9050610810600b80546001019055565b61081a8282611509565b5050565b6106d783838360405180602001604052806000815250610a84565b3361081a8183611523565b6000818152600260205260408120546001600160a01b0316806104785760405162461bcd60e51b815260206004820152602960248201527f4552433732313a206f776e657220717565727920666f72206e6f6e657869737460448201527f656e7420746f6b656e00000000000000000000000000000000000000000000006064820152608401610585565b60006001600160a01b03821661094d5760405162461bcd60e51b815260206004820152602a60248201527f4552433732313a2062616c616e636520717565727920666f7220746865207a6560448201527f726f2061646472657373000000000000000000000000000000000000000000006064820152608401610585565b506001600160a01b031660009081526003602052604090205490565b6006546001600160a01b031633146109c35760405162461bcd60e51b815260206004820181905260248201527f4f776e61626c653a2063616c6c6572206973206e6f7420746865206f776e65726044820152606401610585565b6109cd6000611595565b565b6001600160a01b0381166000908152600a6020526040812054610478565b6000438210610a3e5760405162461bcd60e51b815260206004820152601a60248201527f566f7465733a20626c6f636b206e6f7420796574206d696e65640000000000006044820152606401610585565b6104786009836113de565b60606001805461048d90612692565b6001600160a01b0381166000908152600860205260408120610478906115e7565b61081a338383611651565b610a8e3383610fed565b610b005760405162461bcd60e51b815260206004820152603160248201527f4552433732313a207472616e736665722063616c6c6572206973206e6f74206f60448201527f776e6572206e6f7220617070726f7665640000000000000000000000000000006064820152608401610585565b610b0c84848484611720565b50505050565b83421115610b625760405162461bcd60e51b815260206004820152601860248201527f566f7465733a207369676e6174757265206578706972656400000000000000006044820152606401610585565b604080517fe48329057bfd03d55e49b547132e39cffd9c1820ad7b9d4c5307691425d15adf60208201526001600160a01b038816918101919091526060810186905260808101859052600090610bdc90610bd49060a0016040516020818303038152906040528051906020012061179e565b858585611807565b9050610be78161182f565b8614610c355760405162461bcd60e51b815260206004820152601460248201527f566f7465733a20696e76616c6964206e6f6e63650000000000000000000000006044820152606401610585565b610c3f8188611523565b50505050505050565b6000818152600260205260409020546060906001600160a01b0316610cd55760405162461bcd60e51b815260206004820152602f60248201527f4552433732314d657461646174613a2055524920717565727920666f72206e6f60448201527f6e6578697374656e7420746f6b656e00000000000000000000000000000000006064820152608401610585565b6000610cdf611857565b90506000815111610cff5760405180602001604052806000815250610794565b80610d0984611877565b604051602001610d1a9291906125a5565b6040516020818303038152906040529392505050565b6006546001600160a01b03163314610d8a5760405162461bcd60e51b815260206004820181905260248201527f4f776e61626c653a2063616c6c6572206973206e6f7420746865206f776e65726044820152606401610585565b6001600160a01b038116610e065760405162461bcd60e51b815260206004820152602660248201527f4f776e61626c653a206e6577206f776e657220697320746865207a65726f206160448201527f64647265737300000000000000000000000000000000000000000000000000006064820152608401610585565b610e0f81611595565b50565b80546001019055565b5490565b6001600160a01b03163b151590565b6106d7838360016119c5565b60006107948284612623565b600080610e6885610e63610e59886115e7565b868863ffffffff16565b611a35565b91509150935093915050565b6000610794828461264f565b60006001600160e01b03821115610eff5760405162461bcd60e51b815260206004820152602760248201527f53616665436173743a2076616c756520646f65736e27742066697420696e203260448201527f32342062697473000000000000000000000000000000000000000000000000006064820152608401610585565b5090565b600063ffffffff821115610eff5760405162461bcd60e51b815260206004820152602660248201527f53616665436173743a2076616c756520646f65736e27742066697420696e203360448201527f32206269747300000000000000000000000000000000000000000000000000006064820152608401610585565b600081815260046020526040902080546001600160a01b0319166001600160a01b0384169081179091558190610fb482610844565b6001600160a01b03167f8c5be1e5ebec7d5bd14f71427d1e84f3dd0314c0f7b2291e5b200ac8c7c3b92560405160405180910390a45050565b6000818152600260205260408120546001600160a01b03166110665760405162461bcd60e51b815260206004820152602c60248201527f4552433732313a206f70657261746f7220717565727920666f72206e6f6e657860448201526b34b9ba32b73a103a37b5b2b760a11b6064820152608401610585565b600061107183610844565b9050806001600160a01b0316846001600160a01b031614806110b857506001600160a01b0380821660009081526005602090815260408083209388168352929052205460ff165b806110dc5750836001600160a01b03166110d184610510565b6001600160a01b0316145b949350505050565b826001600160a01b03166110f782610844565b6001600160a01b0316146111735760405162461bcd60e51b815260206004820152602560248201527f4552433732313a207472616e736665722066726f6d20696e636f72726563742060448201527f6f776e65720000000000000000000000000000000000000000000000000000006064820152608401610585565b6001600160a01b0382166111ee5760405162461bcd60e51b8152602060048201526024808201527f4552433732313a207472616e7366657220746f20746865207a65726f2061646460448201527f72657373000000000000000000000000000000000000000000000000000000006064820152608401610585565b6111f9600082610f7f565b6001600160a01b038316600090815260036020526040812080546001929061122290849061264f565b90915550506001600160a01b0382166000908152600360205260408120805460019290611250908490612623565b909155505060008181526002602052604080822080546001600160a01b0319166001600160a01b0386811691821790925591518493918716917fddf252ad1be2c89b69c2b068fc378daa952ba7f163c4a11628f55a4df523b3ef91a46106d7838383611b77565b6000306001600160a01b037f00000000000000000000000000000000000000000000000000000000000000001614801561131057507f000000000000000000000000000000000000000000000000000000000000000046145b1561133a57507f000000000000000000000000000000000000000000000000000000000000000090565b50604080517f00000000000000000000000000000000000000000000000000000000000000006020808301919091527f0000000000000000000000000000000000000000000000000000000000000000828401527f000000000000000000000000000000000000000000000000000000000000000060608301524660808301523060a0808401919091528351808403909101815260c0909201909252805191012090565b600043821061142f5760405162461bcd60e51b815260206004820181905260248201527f436865636b706f696e74733a20626c6f636b206e6f7420796574206d696e65646044820152606401610585565b825460005b818110156114a25760006114488284611b82565b90508486600001828154811061146e57634e487b7160e01b600052603260045260246000fd5b60009182526020909120015463ffffffff16111561148e5780925061149c565b611499816001612623565b91505b50611434565b81156114f457846114b460018461264f565b815481106114d257634e487b7160e01b600052603260045260246000fd5b60009182526020909120015464010000000090046001600160e01b03166114f7565b60005b6001600160e01b031695945050505050565b61081a828260405180602001604052806000815250611b9d565b6001600160a01b0382811660008181526007602052604080822080548686166001600160a01b0319821681179092559151919094169392849290917f3134e8a2e6d97e929a7e54011ea5485d7d196dd5f0ba4d4ef95803e8e3fc257f9190a46106d7818361159086611c1b565b611c26565b600680546001600160a01b038381166001600160a01b0319831681179093556040519116919082907f8be0079c531659141344cd1fd0a4f28419497f9722a3daafe3b4186f6b6457e090600090a35050565b8054600090801561163e57826115fe60018361264f565b8154811061161c57634e487b7160e01b600052603260045260246000fd5b60009182526020909120015464010000000090046001600160e01b0316611641565b60005b6001600160e01b03169392505050565b816001600160a01b0316836001600160a01b031614156116b35760405162461bcd60e51b815260206004820152601960248201527f4552433732313a20617070726f766520746f2063616c6c6572000000000000006044820152606401610585565b6001600160a01b03838116600081815260056020908152604080832094871680845294825291829020805460ff191686151590811790915591519182527f17307eab39ab6107e8899845ad3d59bd9653f200f220920489ca2b5937696c31910160405180910390a3505050565b61172b8484846110e4565b61173784848484611d63565b610b0c5760405162461bcd60e51b815260206004820152603260248201527f4552433732313a207472616e7366657220746f206e6f6e20455243373231526560448201527131b2b4bb32b91034b6b83632b6b2b73a32b960711b6064820152608401610585565b60006104786117ab6112b7565b836040517f19010000000000000000000000000000000000000000000000000000000000006020820152602281018390526042810182905260009060620160405160208183030381529060405280519060200120905092915050565b600080600061181887878787611eb8565b9150915061182581611fa5565b5095945050505050565b6001600160a01b0381166000908152600a602052604090208054600181018255905b50919050565b60606040518060600160405280603c815260200161274f603c9139905090565b6060816118b757505060408051808201909152600181527f3000000000000000000000000000000000000000000000000000000000000000602082015290565b8160005b81156118e157806118cb816126c7565b91506118da9050600a8361263b565b91506118bb565b60008167ffffffffffffffff81111561190a57634e487b7160e01b600052604160045260246000fd5b6040519080825280601f01601f191660200182016040528015611934576020820181803683370190505b5090505b84156110dc5761194960018361264f565b9150611956600a866126e2565b611961906030612623565b60f81b81838151811061198457634e487b7160e01b600052603260045260246000fd5b60200101907effffffffffffffffffffffffffffffffffffffffffffffffffffffffffffff1916908160001a9053506119be600a8661263b565b9450611938565b6001600160a01b0383166119e4576119e16009610e3a83610e46565b50505b6001600160a01b038216611a0357611a006009610e7483610e46565b50505b6001600160a01b038381166000908152600760205260408082205485841683529120546106d792918216911683611c26565b8154600090819081611a46866115e7565b9050600082118015611a9257504386611a6060018561264f565b81548110611a7e57634e487b7160e01b600052603260045260246000fd5b60009182526020909120015463ffffffff16145b15611b0057611aa085610e80565b86611aac60018561264f565b81548110611aca57634e487b7160e01b600052603260045260246000fd5b9060005260206000200160000160046101000a8154816001600160e01b0302191690836001600160e01b03160217905550611b6e565b856000016040518060400160405280611b1843610f03565b63ffffffff168152602001611b2c88610e80565b6001600160e01b0390811690915282546001810184556000938452602093849020835194909301519091166401000000000263ffffffff909316929092179101555b95939450505050565b6106d7838383610e2e565b6000611b91600284841861263b565b61079490848416612623565b611ba783836121a6565b611bb46000848484611d63565b6106d75760405162461bcd60e51b815260206004820152603260248201527f4552433732313a207472616e7366657220746f206e6f6e20455243373231526560448201527131b2b4bb32b91034b6b83632b6b2b73a32b960711b6064820152608401610585565b6000610478826108cf565b816001600160a01b0316836001600160a01b031614158015611c485750600081115b156106d7576001600160a01b03831615611cd6576001600160a01b03831660009081526008602052604081208190611c8390610e7485610e46565b91509150846001600160a01b03167fdec2bacdd2f05b59de34da9b523dff8be42e5e38e818c82fdb0bae774387a7248383604051611ccb929190918252602082015260400190565b60405180910390a250505b6001600160a01b038216156106d7576001600160a01b03821660009081526008602052604081208190611d0c90610e3a85610e46565b91509150836001600160a01b03167fdec2bacdd2f05b59de34da9b523dff8be42e5e38e818c82fdb0bae774387a7248383604051611d54929190918252602082015260400190565b60405180910390a25050505050565b60006001600160a01b0384163b15611eb057604051630a85bd0160e11b81526001600160a01b0385169063150b7a0290611da79033908990889088906004016125d4565b602060405180830381600087803b158015611dc157600080fd5b505af1925050508015611df1575060408051601f3d908101601f19168201909252611dee91810190612545565b60015b611e96573d808015611e1f576040519150601f19603f3d011682016040523d82523d6000602084013e611e24565b606091505b508051611e8e5760405162461bcd60e51b815260206004820152603260248201527f4552433732313a207472616e7366657220746f206e6f6e20455243373231526560448201527131b2b4bb32b91034b6b83632b6b2b73a32b960711b6064820152608401610585565b805181602001fd5b6001600160e01b031916630a85bd0160e11b1490506110dc565b5060016110dc565b6000807f7fffffffffffffffffffffffffffffff5d576e7357a4501ddfe92f46681b20a0831115611eef5750600090506003611f9c565b8460ff16601b14158015611f0757508460ff16601c14155b15611f185750600090506004611f9c565b6040805160008082526020820180845289905260ff881692820192909252606081018690526080810185905260019060a0016020604051602081039080840390855afa158015611f6c573d6000803e3d6000fd5b5050604051601f1901519150506001600160a01b038116611f9557600060019250925050611f9c565b9150600090505b94509492505050565b6000816004811115611fc757634e487b7160e01b600052602160045260246000fd5b1415611fd05750565b6001816004811115611ff257634e487b7160e01b600052602160045260246000fd5b14156120405760405162461bcd60e51b815260206004820152601860248201527f45434453413a20696e76616c6964207369676e617475726500000000000000006044820152606401610585565b600281600481111561206257634e487b7160e01b600052602160045260246000fd5b14156120b05760405162461bcd60e51b815260206004820152601f60248201527f45434453413a20696e76616c6964207369676e6174757265206c656e677468006044820152606401610585565b60038160048111156120d257634e487b7160e01b600052602160045260246000fd5b141561212b5760405162461bcd60e51b815260206004820152602260248201527f45434453413a20696e76616c6964207369676e6174757265202773272076616c604482015261756560f01b6064820152608401610585565b600481600481111561214d57634e487b7160e01b600052602160045260246000fd5b1415610e0f5760405162461bcd60e51b815260206004820152602260248201527f45434453413a20696e76616c6964207369676e6174757265202776272076616c604482015261756560f01b6064820152608401610585565b6001600160a01b0382166121fc5760405162461bcd60e51b815260206004820181905260248201527f4552433732313a206d696e7420746f20746865207a65726f20616464726573736044820152606401610585565b6000818152600260205260409020546001600160a01b0316156122615760405162461bcd60e51b815260206004820152601c60248201527f4552433732313a20746f6b656e20616c7265616479206d696e746564000000006044820152606401610585565b6001600160a01b038216600090815260036020526040812080546001929061228a908490612623565b909155505060008181526002602052604080822080546001600160a01b0319166001600160a01b03861690811790915590518392907fddf252ad1be2c89b69c2b068fc378daa952ba7f163c4a11628f55a4df523b3ef908290a461081a60008383611b77565b80356001600160a01b038116811461230757600080fd5b919050565b60006020828403121561231d578081fd5b610794826122f0565b60008060408385031215612338578081fd5b612341836122f0565b915061234f602084016122f0565b90509250929050565b60008060006060848603121561236c578081fd5b612375846122f0565b9250612383602085016122f0565b9150604084013590509250925092565b600080600080608085870312156123a8578081fd5b6123b1856122f0565b93506123bf602086016122f0565b925060408501359150606085013567ffffffffffffffff808211156123e2578283fd5b818701915087601f8301126123f5578283fd5b81358181111561240757612407612722565b604051601f8201601f19908116603f0116810190838211818310171561242f5761242f612722565b816040528281528a6020848701011115612447578586fd5b82602086016020830137918201602001949094529598949750929550505050565b6000806040838503121561247a578182fd5b612483836122f0565b915060208301358015158114612497578182fd5b809150509250929050565b600080604083850312156124b4578182fd5b6124bd836122f0565b946020939093013593505050565b60008060008060008060c087890312156124e3578182fd5b6124ec876122f0565b95506020870135945060408701359350606087013560ff8116811461250f578283fd5b9598949750929560808101359460a0909101359350915050565b60006020828403121561253a578081fd5b813561079481612738565b600060208284031215612556578081fd5b815161079481612738565b600060208284031215612572578081fd5b5035919050565b60008151808452612591816020860160208601612666565b601f01601f19169290920160200192915050565b600083516125b7818460208801612666565b8351908301906125cb818360208801612666565b01949350505050565b60006001600160a01b038087168352808616602084015250836040830152608060608301526126066080830184612579565b9695505050505050565b6020815260006107946020830184612579565b60008219821115612636576126366126f6565b500190565b60008261264a5761264a61270c565b500490565b600082821015612661576126616126f6565b500390565b60005b83811015612681578181015183820152602001612669565b83811115610b0c5750506000910152565b600181811c908216806126a657607f821691505b6020821081141561185157634e487b7160e01b600052602260045260246000fd5b60006000198214156126db576126db6126f6565b5060010190565b6000826126f1576126f161270c565b500690565b634e487b7160e01b600052601160045260246000fd5b634e487b7160e01b600052601260045260246000fd5b634e487b7160e01b600052604160045260246000fd5b6001600160e01b031981168114610e0f57600080fdfe68747470733a2f2f7261772e67697468756275736572636f6e74656e742e636f6d2f64336c3333742f6368616d7061676e652f6d61696e2f6e66742fa2646970667358221220a58bebc87cb183fcd8a88d3eed340447b74c2d20f5616ef270f3ac167865158964736f6c634300080400334552433732313a207472616e7366657220746f206e6f6e2045524337323152654f776e61626c653a2063616c6c6572206973206e6f7420746865206f776e6572dec2bacdd2f05b59de34da9b523dff8be42e5e38e818c82fdb0bae774387a724",
  "linkReferences": {},
  "deployedLinkReferences": {}
}