{
  "_format": "hh-sol-artifact-1",
  "contractName": "ChampagneCollective",
  "sourceName": "contracts/Champagne.sol",
  "abi": [
    {
      "inputs": [],
      "stateMutability": "nonpayable",
      "type": "constructor"
    },
    {
      "anonymous": false,
      "inputs": [
        {
          "indexed": true,
          "internalType": "address",
          "name": "owner",
          "type": "address"
        },
        {
          "indexed": true,
          "internalType": "address",
          "name": "approved",
          "type": "address"
        },
        {
          "indexed": true,
          "internalType": "uint256",
          "name": "tokenId",
          "type": "uint256"
        }
      ],
      "name": "Approval",
      "type": "event"
    },
    {
      "anonymous": false,
      "inputs": [
        {
          "indexed": true,
          "internalType": "address",
          "name": "owner",
          "type": "address"
        },
        {
          "indexed": true,
          "internalType": "address",
          "name": "operator",
          "type": "address"
        },
        {
          "indexed": false,
          "internalType": "bool",
          "name": "approved",
          "type": "bool"
        }
      ],
      "name": "ApprovalForAll",
      "type": "event"
    },
    {
      "anonymous": false,
      "inputs": [
        {
          "indexed": true,
          "internalType": "address",
          "name": "delegator",
          "type": "address"
        },
        {
          "indexed": true,
          "internalType": "address",
          "name": "fromDelegate",
          "type": "address"
        },
        {
          "indexed": true,
          "internalType": "address",
          "name": "toDelegate",
          "type": "address"
        }
      ],
      "name": "DelegateChanged",
      "type": "event"
    },
    {
      "anonymous": false,
      "inputs": [
        {
          "indexed": true,
          "internalType": "address",
          "name": "delegate",
          "type": "address"
        },
        {
          "indexed": false,
          "internalType": "uint256",
          "name": "previousBalance",
          "type": "uint256"
        },
        {
          "indexed": false,
          "internalType": "uint256",
          "name": "newBalance",
          "type": "uint256"
        }
      ],
      "name": "DelegateVotesChanged",
      "type": "event"
    },
    {
      "anonymous": false,
      "inputs": [
        {
          "indexed": true,
          "internalType": "address",
          "name": "previousOwner",
          "type": "address"
        },
        {
          "indexed": true,
          "internalType": "address",
          "name": "newOwner",
          "type": "address"
        }
      ],
      "name": "OwnershipTransferred",
      "type": "event"
    },
    {
      "anonymous": false,
      "inputs": [
        {
          "indexed": true,
          "internalType": "address",
          "name": "from",
          "type": "address"
        },
        {
          "indexed": true,
          "internalType": "address",
          "name": "to",
          "type": "address"
        },
        {
          "indexed": true,
          "internalType": "uint256",
          "name": "tokenId",
          "type": "uint256"
        }
      ],
      "name": "Transfer",
      "type": "event"
    },
    {
      "inputs": [],
      "name": "DOMAIN_SEPARATOR",
      "outputs": [
        {
          "internalType": "bytes32",
          "name": "",
          "type": "bytes32"
        }
      ],
      "stateMutability": "view",
      "type": "function"
    },
    {
      "inputs": [
        {
          "internalType": "address",
          "name": "to",
          "type": "address"
        },
        {
          "internalType": "uint256",
          "name": "tokenId",
          "type": "uint256"
        }
      ],
      "name": "approve",
      "outputs": [],
      "stateMutability": "nonpayable",
      "type": "function"
    },
    {
      "inputs": [
        {
          "internalType": "address",
          "name": "owner",
          "type": "address"
        }
      ],
      "name": "balanceOf",
      "outputs": [
        {
          "internalType": "uint256",
          "name": "",
          "type": "uint256"
        }
      ],
      "stateMutability": "view",
      "type": "function"
    },
    {
      "inputs": [
        {
          "internalType": "address",
          "name": "delegatee",
          "type": "address"
        }
      ],
      "name": "delegate",
      "outputs": [],
      "stateMutability": "nonpayable",
      "type": "function"
    },
    {
      "inputs": [
        {
          "internalType": "address",
          "name": "delegatee",
          "type": "address"
        },
        {
          "internalType": "uint256",
          "name": "nonce",
          "type": "uint256"
        },
        {
          "internalType": "uint256",
          "name": "expiry",
          "type": "uint256"
        },
        {
          "internalType": "uint8",
          "name": "v",
          "type": "uint8"
        },
        {
          "internalType": "bytes32",
          "name": "r",
          "type": "bytes32"
        },
        {
          "internalType": "bytes32",
          "name": "s",
          "type": "bytes32"
        }
      ],
      "name": "delegateBySig",
      "outputs": [],
      "stateMutability": "nonpayable",
      "type": "function"
    },
    {
      "inputs": [
        {
          "internalType": "address",
          "name": "account",
          "type": "address"
        }
      ],
      "name": "delegates",
      "outputs": [
        {
          "internalType": "address",
          "name": "",
          "type": "address"
        }
      ],
      "stateMutability": "view",
      "type": "function"
    },
    {
      "inputs": [
        {
          "internalType": "uint256",
          "name": "tokenId",
          "type": "uint256"
        }
      ],
      "name": "getApproved",
      "outputs": [
        {
          "internalType": "address",
          "name": "",
          "type": "address"
        }
      ],
      "stateMutability": "view",
      "type": "function"
    },
    {
      "inputs": [
        {
          "internalType": "uint256",
          "name": "blockNumber",
          "type": "uint256"
        }
      ],
      "name": "getPastTotalSupply",
      "outputs": [
        {
          "internalType": "uint256",
          "name": "",
          "type": "uint256"
        }
      ],
      "stateMutability": "view",
      "type": "function"
    },
    {
      "inputs": [
        {
          "internalType": "address",
          "name": "account",
          "type": "address"
        },
        {
          "internalType": "uint256",
          "name": "blockNumber",
          "type": "uint256"
        }
      ],
      "name": "getPastVotes",
      "outputs": [
        {
          "internalType": "uint256",
          "name": "",
          "type": "uint256"
        }
      ],
      "stateMutability": "view",
      "type": "function"
    },
    {
      "inputs": [
        {
          "internalType": "address",
          "name": "account",
          "type": "address"
        }
      ],
      "name": "getVotes",
      "outputs": [
        {
          "internalType": "uint256",
          "name": "",
          "type": "uint256"
        }
      ],
      "stateMutability": "view",
      "type": "function"
    },
    {
      "inputs": [
        {
          "internalType": "address",
          "name": "owner",
          "type": "address"
        },
        {
          "internalType": "address",
          "name": "operator",
          "type": "address"
        }
      ],
      "name": "isApprovedForAll",
      "outputs": [
        {
          "internalType": "bool",
          "name": "",
          "type": "bool"
        }
      ],
      "stateMutability": "view",
      "type": "function"
    },
    {
      "inputs": [],
      "name": "name",
      "outputs": [
        {
          "internalType": "string",
          "name": "",
          "type": "string"
        }
      ],
      "stateMutability": "view",
      "type": "function"
    },
    {
      "inputs": [
        {
          "internalType": "address",
          "name": "owner",
          "type": "address"
        }
      ],
      "name": "nonces",
      "outputs": [
        {
          "internalType": "uint256",
          "name": "",
          "type": "uint256"
        }
      ],
      "stateMutability": "view",
      "type": "function"
    },
    {
      "inputs": [],
      "name": "owner",
      "outputs": [
        {
          "internalType": "address",
          "name": "",
          "type": "address"
        }
      ],
      "stateMutability": "view",
      "type": "function"
    },
    {
      "inputs": [
        {
          "internalType": "uint256",
          "name": "tokenId",
          "type": "uint256"
        }
      ],
      "name": "ownerOf",
      "outputs": [
        {
          "internalType": "address",
          "name": "",
          "type": "address"
        }
      ],
      "stateMutability": "view",
      "type": "function"
    },
    {
      "inputs": [],
      "name": "renounceOwnership",
      "outputs": [],
      "stateMutability": "nonpayable",
      "type": "function"
    },
    {
      "inputs": [
        {
          "internalType": "address",
          "name": "to",
          "type": "address"
        }
      ],
      "name": "safeMint",
      "outputs": [],
      "stateMutability": "nonpayable",
      "type": "function"
    },
    {
      "inputs": [
        {
          "internalType": "address",
          "name": "from",
          "type": "address"
        },
        {
          "internalType": "address",
          "name": "to",
          "type": "address"
        },
        {
          "internalType": "uint256",
          "name": "tokenId",
          "type": "uint256"
        }
      ],
      "name": "safeTransferFrom",
      "outputs": [],
      "stateMutability": "nonpayable",
      "type": "function"
    },
    {
      "inputs": [
        {
          "internalType": "address",
          "name": "from",
          "type": "address"
        },
        {
          "internalType": "address",
          "name": "to",
          "type": "address"
        },
        {
          "internalType": "uint256",
          "name": "tokenId",
          "type": "uint256"
        },
        {
          "internalType": "bytes",
          "name": "_data",
          "type": "bytes"
        }
      ],
      "name": "safeTransferFrom",
      "outputs": [],
      "stateMutability": "nonpayable",
      "type": "function"
    },
    {
      "inputs": [
        {
          "internalType": "address",
          "name": "operator",
          "type": "address"
        },
        {
          "internalType": "bool",
          "name": "approved",
          "type": "bool"
        }
      ],
      "name": "setApprovalForAll",
      "outputs": [],
      "stateMutability": "nonpayable",
      "type": "function"
    },
    {
      "inputs": [
        {
          "internalType": "bytes4",
          "name": "interfaceId",
          "type": "bytes4"
        }
      ],
      "name": "supportsInterface",
      "outputs": [
        {
          "internalType": "bool",
          "name": "",
          "type": "bool"
        }
      ],
      "stateMutability": "view",
      "type": "function"
    },
    {
      "inputs": [],
      "name": "symbol",
      "outputs": [
        {
          "internalType": "string",
          "name": "",
          "type": "string"
        }
      ],
      "stateMutability": "view",
      "type": "function"
    },
    {
      "inputs": [
        {
          "internalType": "uint256",
          "name": "tokenId",
          "type": "uint256"
        }
      ],
      "name": "tokenURI",
      "outputs": [
        {
          "internalType": "string",
          "name": "",
          "type": "string"
        }
      ],
      "stateMutability": "view",
      "type": "function"
    },
    {
      "inputs": [
        {
          "internalType": "address",
          "name": "from",
          "type": "address"
        },
        {
          "internalType": "address",
          "name": "to",
          "type": "address"
        },
        {
          "internalType": "uint256",
          "name": "tokenId",
          "type": "uint256"
        }
      ],
      "name": "transferFrom",
      "outputs": [],
      "stateMutability": "nonpayable",
      "type": "function"
    },
    {
      "inputs": [
        {
          "internalType": "address",
          "name": "newOwner",
          "type": "address"
        }
      ],
      "name": "transferOwnership",
      "outputs": [],
      "stateMutability": "nonpayable",
      "type": "function"
    }
  ],
  "bytecode": "0x6101406040523480156200001257600080fd5b506040518060400160405280601481526020017f4368616d7061676e6520436f6c6c656374697665000000000000000000000000815250604051806040016040528060018152602001603160f81b8152506040518060400160405280601481526020017f4368616d7061676e6520436f6c6c6563746976650000000000000000000000008152506040518060400160405280600581526020016404348414d560dc1b8152508160009080519060200190620000cf92919062000215565b508051620000e590600190602084019062000215565b50505062000102620000fc620001b660201b60201c565b620001ba565b815160208084019190912082518383012060e08290526101008190524660a0818152604080517f8b73c3c69bb8fe3d512ecc4cf759cc79239f7b179b0ffacaa9a75d522b39400f81880181905281830187905260608201869052608082019490945230818401528151808203909301835260c00190528051940193909320919290916080523060601b60c0526101205250620001b09250600b9150506200020c602090811b62000e1217901c565b620002f8565b3390565b600680546001600160a01b038381166001600160a01b0319831681179093556040519116919082907f8be0079c531659141344cd1fd0a4f28419497f9722a3daafe3b4186f6b6457e090600090a35050565b80546001019055565b8280546200022390620002bb565b90600052602060002090601f01602090048101928262000247576000855562000292565b82601f106200026257805160ff191683800117855562000292565b8280016001018555821562000292579182015b828111156200029257825182559160200191906001019062000275565b50620002a0929150620002a4565b5090565b5b80821115620002a05760008155600101620002a5565b600181811c90821680620002d057607f821691505b60208210811415620002f257634e487b7160e01b600052602260045260246000fd5b50919050565b60805160a05160c05160601c60e05161010051610120516127ad6200034b60003960006111dd0152600061122c01526000611207015260006111600152600061118a015260006111b401526127ad6000f3fe608060405234801561001057600080fd5b50600436106101a35760003560e01c806370a08231116100ee5780639ab24eb011610097578063c3cda52011610071578063c3cda5201461036c578063c87b56dd1461037f578063e985e9c514610392578063f2fde38b146103ce57600080fd5b80639ab24eb014610333578063a22cb46514610346578063b88d4fde1461035957600080fd5b80638da5cb5b116100c85780638da5cb5b146103075780638e539e8c1461031857806395d89b411461032b57600080fd5b806370a08231146102d9578063715018a6146102ec5780637ecebe00146102f457600080fd5b80633a46b1a811610150578063587cde1e1161012a578063587cde1e146102875780635c19a95c146102b35780636352211e146102c657600080fd5b80633a46b1a81461024e57806340d097c31461026157806342842e0e1461027457600080fd5b8063095ea7b311610181578063095ea7b31461021057806323b872dd146102255780633644e5151461023857600080fd5b806301ffc9a7146101a857806306fdde03146101d0578063081812fc146101e5575b600080fd5b6101bb6101b6366004612516565b6103e1565b60405190151581526020015b60405180910390f35b6101d861047e565b6040516101c791906125fd565b6101f86101f336600461254e565b610510565b6040516001600160a01b0390911681526020016101c7565b61022361021e36600461248f565b6105aa565b005b610223610233366004612345565b6106dc565b610240610763565b6040519081526020016101c7565b61024061025c36600461248f565b610772565b61022361026f3660046122f9565b61079b565b610223610282366004612345565b61081e565b6101f86102953660046122f9565b6001600160a01b039081166000908152600760205260409020541690565b6102236102c13660046122f9565b610839565b6101f86102d436600461254e565b610844565b6102406102e73660046122f9565b6108cf565b610223610969565b6102406103023660046122f9565b6109cf565b6006546001600160a01b03166101f8565b61024061032636600461254e565b6109ed565b6101d8610a49565b6102406103413660046122f9565b610a58565b610223610354366004612455565b610a79565b610223610367366004612380565b610a84565b61022361037a3660046124b8565b610b12565b6101d861038d36600461254e565b610c48565b6101bb6103a0366004612313565b6001600160a01b03918216600090815260056020908152604080832093909416825291909152205460ff1690565b6102236103dc3660046122f9565b610d30565b60006001600160e01b031982167f80ac58cd00000000000000000000000000000000000000000000000000000000148061044457506001600160e01b031982167f5b5e139f00000000000000000000000000000000000000000000000000000000145b8061047857507f01ffc9a7000000000000000000000000000000000000000000000000000000006001600160e01b03198316145b92915050565b60606000805461048d9061267f565b80601f01602080910402602001604051908101604052809291908181526020018280546104b99061267f565b80156105065780601f106104db57610100808354040283529160200191610506565b820191906000526020600020905b8154815290600101906020018083116104e957829003601f168201915b5050505050905090565b6000818152600260205260408120546001600160a01b031661058e5760405162461bcd60e51b815260206004820152602c60248201527f4552433732313a20617070726f76656420717565727920666f72206e6f6e657860448201526b34b9ba32b73a103a37b5b2b760a11b60648201526084015b60405180910390fd5b506000908152600460205260409020546001600160a01b031690565b60006105b582610844565b9050806001600160a01b0316836001600160a01b0316141561063f5760405162461bcd60e51b815260206004820152602160248201527f4552433732313a20617070726f76616c20746f2063757272656e74206f776e6560448201527f72000000000000000000000000000000000000000000000000000000000000006064820152608401610585565b336001600160a01b038216148061065b575061065b81336103a0565b6106cd5760405162461bcd60e51b815260206004820152603860248201527f4552433732313a20617070726f76652063616c6c6572206973206e6f74206f7760448201527f6e6572206e6f7220617070726f76656420666f7220616c6c00000000000000006064820152608401610585565b6106d78383610e1b565b505050565b6106e63382610e89565b6107585760405162461bcd60e51b815260206004820152603160248201527f4552433732313a207472616e736665722063616c6c6572206973206e6f74206f60448201527f776e6572206e6f7220617070726f7665640000000000000000000000000000006064820152608401610585565b6106d7838383610f80565b600061076d611153565b905090565b6001600160a01b0382166000908152600860205260408120610794908361127a565b9392505050565b6006546001600160a01b031633146107f55760405162461bcd60e51b815260206004820181905260248201527f4f776e61626c653a2063616c6c6572206973206e6f7420746865206f776e65726044820152606401610585565b6000610800600b5490565b9050610810600b80546001019055565b61081a82826113a5565b5050565b6106d783838360405180602001604052806000815250610a84565b3361081a81836113bf565b6000818152600260205260408120546001600160a01b0316806104785760405162461bcd60e51b815260206004820152602960248201527f4552433732313a206f776e657220717565727920666f72206e6f6e657869737460448201527f656e7420746f6b656e00000000000000000000000000000000000000000000006064820152608401610585565b60006001600160a01b03821661094d5760405162461bcd60e51b815260206004820152602a60248201527f4552433732313a2062616c616e636520717565727920666f7220746865207a6560448201527f726f2061646472657373000000000000000000000000000000000000000000006064820152608401610585565b506001600160a01b031660009081526003602052604090205490565b6006546001600160a01b031633146109c35760405162461bcd60e51b815260206004820181905260248201527f4f776e61626c653a2063616c6c6572206973206e6f7420746865206f776e65726044820152606401610585565b6109cd6000611431565b565b6001600160a01b0381166000908152600a6020526040812054610478565b6000438210610a3e5760405162461bcd60e51b815260206004820152601a60248201527f566f7465733a20626c6f636b206e6f7420796574206d696e65640000000000006044820152606401610585565b61047860098361127a565b60606001805461048d9061267f565b6001600160a01b038116600090815260086020526040812061047890611483565b61081a3383836114ed565b610a8e3383610e89565b610b005760405162461bcd60e51b815260206004820152603160248201527f4552433732313a207472616e736665722063616c6c6572206973206e6f74206f60448201527f776e6572206e6f7220617070726f7665640000000000000000000000000000006064820152608401610585565b610b0c848484846115bc565b50505050565b83421115610b625760405162461bcd60e51b815260206004820152601860248201527f566f7465733a207369676e6174757265206578706972656400000000000000006044820152606401610585565b604080517fe48329057bfd03d55e49b547132e39cffd9c1820ad7b9d4c5307691425d15adf60208201526001600160a01b038816918101919091526060810186905260808101859052600090610bdc90610bd49060a0016040516020818303038152906040528051906020012061163a565b8585856116a3565b9050610be7816116cb565b8614610c355760405162461bcd60e51b815260206004820152601460248201527f566f7465733a20696e76616c6964206e6f6e63650000000000000000000000006044820152606401610585565b610c3f81886113bf565b50505050505050565b6000818152600260205260409020546060906001600160a01b0316610cd55760405162461bcd60e51b815260206004820152602f60248201527f4552433732314d657461646174613a2055524920717565727920666f72206e6f60448201527f6e6578697374656e7420746f6b656e00000000000000000000000000000000006064820152608401610585565b6000610cdf6116f3565b90506000815111610cff5760405180602001604052806000815250610794565b80610d0984611713565b604051602001610d1a929190612592565b6040516020818303038152906040529392505050565b6006546001600160a01b03163314610d8a5760405162461bcd60e51b815260206004820181905260248201527f4f776e61626c653a2063616c6c6572206973206e6f7420746865206f776e65726044820152606401610585565b6001600160a01b038116610e065760405162461bcd60e51b815260206004820152602660248201527f4f776e61626c653a206e6577206f776e657220697320746865207a65726f206160448201527f64647265737300000000000000000000000000000000000000000000000000006064820152608401610585565b610e0f81611431565b50565b80546001019055565b600081815260046020526040902080546001600160a01b0319166001600160a01b0384169081179091558190610e5082610844565b6001600160a01b03167f8c5be1e5ebec7d5bd14f71427d1e84f3dd0314c0f7b2291e5b200ac8c7c3b92560405160405180910390a45050565b6000818152600260205260408120546001600160a01b0316610f025760405162461bcd60e51b815260206004820152602c60248201527f4552433732313a206f70657261746f7220717565727920666f72206e6f6e657860448201526b34b9ba32b73a103a37b5b2b760a11b6064820152608401610585565b6000610f0d83610844565b9050806001600160a01b0316846001600160a01b03161480610f5457506001600160a01b0380821660009081526005602090815260408083209388168352929052205460ff165b80610f785750836001600160a01b0316610f6d84610510565b6001600160a01b0316145b949350505050565b826001600160a01b0316610f9382610844565b6001600160a01b03161461100f5760405162461bcd60e51b815260206004820152602560248201527f4552433732313a207472616e736665722066726f6d20696e636f72726563742060448201527f6f776e65720000000000000000000000000000000000000000000000000000006064820152608401610585565b6001600160a01b03821661108a5760405162461bcd60e51b8152602060048201526024808201527f4552433732313a207472616e7366657220746f20746865207a65726f2061646460448201527f72657373000000000000000000000000000000000000000000000000000000006064820152608401610585565b611095600082610e1b565b6001600160a01b03831660009081526003602052604081208054600192906110be90849061263c565b90915550506001600160a01b03821660009081526003602052604081208054600192906110ec908490612610565b909155505060008181526002602052604080822080546001600160a01b0319166001600160a01b0386811691821790925591518493918716917fddf252ad1be2c89b69c2b068fc378daa952ba7f163c4a11628f55a4df523b3ef91a46106d7838383611861565b6000306001600160a01b037f0000000000000000000000000000000000000000000000000000000000000000161480156111ac57507f000000000000000000000000000000000000000000000000000000000000000046145b156111d657507f000000000000000000000000000000000000000000000000000000000000000090565b50604080517f00000000000000000000000000000000000000000000000000000000000000006020808301919091527f0000000000000000000000000000000000000000000000000000000000000000828401527f000000000000000000000000000000000000000000000000000000000000000060608301524660808301523060a0808401919091528351808403909101815260c0909201909252805191012090565b60004382106112cb5760405162461bcd60e51b815260206004820181905260248201527f436865636b706f696e74733a20626c6f636b206e6f7420796574206d696e65646044820152606401610585565b825460005b8181101561133e5760006112e4828461186c565b90508486600001828154811061130a57634e487b7160e01b600052603260045260246000fd5b60009182526020909120015463ffffffff16111561132a57809250611338565b611335816001612610565b91505b506112d0565b8115611390578461135060018461263c565b8154811061136e57634e487b7160e01b600052603260045260246000fd5b60009182526020909120015464010000000090046001600160e01b0316611393565b60005b6001600160e01b031695945050505050565b61081a828260405180602001604052806000815250611887565b6001600160a01b0382811660008181526007602052604080822080548686166001600160a01b0319821681179092559151919094169392849290917f3134e8a2e6d97e929a7e54011ea5485d7d196dd5f0ba4d4ef95803e8e3fc257f9190a46106d7818361142c86611905565b611910565b600680546001600160a01b038381166001600160a01b0319831681179093556040519116919082907f8be0079c531659141344cd1fd0a4f28419497f9722a3daafe3b4186f6b6457e090600090a35050565b805460009080156114da578261149a60018361263c565b815481106114b857634e487b7160e01b600052603260045260246000fd5b60009182526020909120015464010000000090046001600160e01b03166114dd565b60005b6001600160e01b03169392505050565b816001600160a01b0316836001600160a01b0316141561154f5760405162461bcd60e51b815260206004820152601960248201527f4552433732313a20617070726f766520746f2063616c6c6572000000000000006044820152606401610585565b6001600160a01b03838116600081815260056020908152604080832094871680845294825291829020805460ff191686151590811790915591519182527f17307eab39ab6107e8899845ad3d59bd9653f200f220920489ca2b5937696c31910160405180910390a3505050565b6115c7848484610f80565b6115d384848484611a4d565b610b0c5760405162461bcd60e51b815260206004820152603260248201527f4552433732313a207472616e7366657220746f206e6f6e20455243373231526560448201527131b2b4bb32b91034b6b83632b6b2b73a32b960711b6064820152608401610585565b6000610478611647611153565b836040517f19010000000000000000000000000000000000000000000000000000000000006020820152602281018390526042810182905260009060620160405160208183030381529060405280519060200120905092915050565b60008060006116b487878787611ba2565b915091506116c181611c8f565b5095945050505050565b6001600160a01b0381166000908152600a602052604090208054600181018255905b50919050565b60606040518060600160405280603c815260200161273c603c9139905090565b60608161175357505060408051808201909152600181527f3000000000000000000000000000000000000000000000000000000000000000602082015290565b8160005b811561177d5780611767816126b4565b91506117769050600a83612628565b9150611757565b60008167ffffffffffffffff8111156117a657634e487b7160e01b600052604160045260246000fd5b6040519080825280601f01601f1916602001820160405280156117d0576020820181803683370190505b5090505b8415610f78576117e560018361263c565b91506117f2600a866126cf565b6117fd906030612610565b60f81b81838151811061182057634e487b7160e01b600052603260045260246000fd5b60200101907effffffffffffffffffffffffffffffffffffffffffffffffffffffffffffff1916908160001a90535061185a600a86612628565b94506117d4565b6106d7838383611e90565b600061187b6002848418612628565b61079490848416612610565b6118918383611e9c565b61189e6000848484611a4d565b6106d75760405162461bcd60e51b815260206004820152603260248201527f4552433732313a207472616e7366657220746f206e6f6e20455243373231526560448201527131b2b4bb32b91034b6b83632b6b2b73a32b960711b6064820152608401610585565b6000610478826108cf565b816001600160a01b0316836001600160a01b0316141580156119325750600081115b156106d7576001600160a01b038316156119c0576001600160a01b0383166000908152600860205260408120819061196d90611fe685611ff2565b91509150846001600160a01b03167fdec2bacdd2f05b59de34da9b523dff8be42e5e38e818c82fdb0bae774387a72483836040516119b5929190918252602082015260400190565b60405180910390a250505b6001600160a01b038216156106d7576001600160a01b038216600090815260086020526040812081906119f69061202085611ff2565b91509150836001600160a01b03167fdec2bacdd2f05b59de34da9b523dff8be42e5e38e818c82fdb0bae774387a7248383604051611a3e929190918252602082015260400190565b60405180910390a25050505050565b60006001600160a01b0384163b15611b9a57604051630a85bd0160e11b81526001600160a01b0385169063150b7a0290611a919033908990889088906004016125c1565b602060405180830381600087803b158015611aab57600080fd5b505af1925050508015611adb575060408051601f3d908101601f19168201909252611ad891810190612532565b60015b611b80573d808015611b09576040519150601f19603f3d011682016040523d82523d6000602084013e611b0e565b606091505b508051611b785760405162461bcd60e51b815260206004820152603260248201527f4552433732313a207472616e7366657220746f206e6f6e20455243373231526560448201527131b2b4bb32b91034b6b83632b6b2b73a32b960711b6064820152608401610585565b805181602001fd5b6001600160e01b031916630a85bd0160e11b149050610f78565b506001610f78565b6000807f7fffffffffffffffffffffffffffffff5d576e7357a4501ddfe92f46681b20a0831115611bd95750600090506003611c86565b8460ff16601b14158015611bf157508460ff16601c14155b15611c025750600090506004611c86565b6040805160008082526020820180845289905260ff881692820192909252606081018690526080810185905260019060a0016020604051602081039080840390855afa158015611c56573d6000803e3d6000fd5b5050604051601f1901519150506001600160a01b038116611c7f57600060019250925050611c86565b9150600090505b94509492505050565b6000816004811115611cb157634e487b7160e01b600052602160045260246000fd5b1415611cba5750565b6001816004811115611cdc57634e487b7160e01b600052602160045260246000fd5b1415611d2a5760405162461bcd60e51b815260206004820152601860248201527f45434453413a20696e76616c6964207369676e617475726500000000000000006044820152606401610585565b6002816004811115611d4c57634e487b7160e01b600052602160045260246000fd5b1415611d9a5760405162461bcd60e51b815260206004820152601f60248201527f45434453413a20696e76616c6964207369676e6174757265206c656e677468006044820152606401610585565b6003816004811115611dbc57634e487b7160e01b600052602160045260246000fd5b1415611e155760405162461bcd60e51b815260206004820152602260248201527f45434453413a20696e76616c6964207369676e6174757265202773272076616c604482015261756560f01b6064820152608401610585565b6004816004811115611e3757634e487b7160e01b600052602160045260246000fd5b1415610e0f5760405162461bcd60e51b815260206004820152602260248201527f45434453413a20696e76616c6964207369676e6174757265202776272076616c604482015261756560f01b6064820152608401610585565b6106d78383600161202c565b6001600160a01b038216611ef25760405162461bcd60e51b815260206004820181905260248201527f4552433732313a206d696e7420746f20746865207a65726f20616464726573736044820152606401610585565b6000818152600260205260409020546001600160a01b031615611f575760405162461bcd60e51b815260206004820152601c60248201527f4552433732313a20746f6b656e20616c7265616479206d696e746564000000006044820152606401610585565b6001600160a01b0382166000908152600360205260408120805460019290611f80908490612610565b909155505060008181526002602052604080822080546001600160a01b0319166001600160a01b03861690811790915590518392907fddf252ad1be2c89b69c2b068fc378daa952ba7f163c4a11628f55a4df523b3ef908290a461081a60008383611861565b6000610794828461263c565b6000806120148561200f61200588611483565b868863ffffffff16565b61209c565b91509150935093915050565b60006107948284612610565b6001600160a01b03831661204b57612048600961202083611ff2565b50505b6001600160a01b03821661206a576120676009611fe683611ff2565b50505b6001600160a01b038381166000908152600760205260408082205485841683529120546106d792918216911683611910565b81546000908190816120ad86611483565b90506000821180156120f9575043866120c760018561263c565b815481106120e557634e487b7160e01b600052603260045260246000fd5b60009182526020909120015463ffffffff16145b1561216757612107856121de565b8661211360018561263c565b8154811061213157634e487b7160e01b600052603260045260246000fd5b9060005260206000200160000160046101000a8154816001600160e01b0302191690836001600160e01b031602179055506121d5565b85600001604051806040016040528061217f43612261565b63ffffffff168152602001612193886121de565b6001600160e01b0390811690915282546001810184556000938452602093849020835194909301519091166401000000000263ffffffff909316929092179101555b95939450505050565b60006001600160e01b0382111561225d5760405162461bcd60e51b815260206004820152602760248201527f53616665436173743a2076616c756520646f65736e27742066697420696e203260448201527f32342062697473000000000000000000000000000000000000000000000000006064820152608401610585565b5090565b600063ffffffff82111561225d5760405162461bcd60e51b815260206004820152602660248201527f53616665436173743a2076616c756520646f65736e27742066697420696e203360448201527f32206269747300000000000000000000000000000000000000000000000000006064820152608401610585565b80356001600160a01b03811681146122f457600080fd5b919050565b60006020828403121561230a578081fd5b610794826122dd565b60008060408385031215612325578081fd5b61232e836122dd565b915061233c602084016122dd565b90509250929050565b600080600060608486031215612359578081fd5b612362846122dd565b9250612370602085016122dd565b9150604084013590509250925092565b60008060008060808587031215612395578081fd5b61239e856122dd565b93506123ac602086016122dd565b925060408501359150606085013567ffffffffffffffff808211156123cf578283fd5b818701915087601f8301126123e2578283fd5b8135818111156123f4576123f461270f565b604051601f8201601f19908116603f0116810190838211818310171561241c5761241c61270f565b816040528281528a6020848701011115612434578586fd5b82602086016020830137918201602001949094529598949750929550505050565b60008060408385031215612467578182fd5b612470836122dd565b915060208301358015158114612484578182fd5b809150509250929050565b600080604083850312156124a1578182fd5b6124aa836122dd565b946020939093013593505050565b60008060008060008060c087890312156124d0578182fd5b6124d9876122dd565b95506020870135945060408701359350606087013560ff811681146124fc578283fd5b9598949750929560808101359460a0909101359350915050565b600060208284031215612527578081fd5b813561079481612725565b600060208284031215612543578081fd5b815161079481612725565b60006020828403121561255f578081fd5b5035919050565b6000815180845261257e816020860160208601612653565b601f01601f19169290920160200192915050565b600083516125a4818460208801612653565b8351908301906125b8818360208801612653565b01949350505050565b60006001600160a01b038087168352808616602084015250836040830152608060608301526125f36080830184612566565b9695505050505050565b6020815260006107946020830184612566565b60008219821115612623576126236126e3565b500190565b600082612637576126376126f9565b500490565b60008282101561264e5761264e6126e3565b500390565b60005b8381101561266e578181015183820152602001612656565b83811115610b0c5750506000910152565b600181811c9082168061269357607f821691505b602082108114156116ed57634e487b7160e01b600052602260045260246000fd5b60006000198214156126c8576126c86126e3565b5060010190565b6000826126de576126de6126f9565b500690565b634e487b7160e01b600052601160045260246000fd5b634e487b7160e01b600052601260045260246000fd5b634e487b7160e01b600052604160045260246000fd5b6001600160e01b031981168114610e0f57600080fdfe68747470733a2f2f7261772e67697468756275736572636f6e74656e742e636f6d2f64336c3333742f6368616d7061676e652f6d61696e2f6e66742fa2646970667358221220f33e74ded536c6f462a703a9be32337244b4c6883e77372af6279b5926fec90064736f6c63430008040033",
  "linkReferences": {},
  "deployedLinkReferences": {}
}